:020000040801F1
:100000000080012029400208C5660208E19201082B
:100010003DFB02083DFB02083DFB0208000000001A
:10002000000000000000000000000000C966020897
:10003000CD66020800000000D1660208D5660208FD
:100040003DFB02083DFB02083DFB02083DFB0208A8
:100050003DFB02083DFB0208195902081D59020820
:100060002159020825590208295902086564020825
:10007000756402088564020895640208A564020894
:10008000B5640208C56402083DFB02083DFB020896
:100090003DFB02083DFB02083DFB02082D5902080A
:1000A0003DFB02083DFB02083DFB02083DFB020848
:1000B000AD440208B5440208BD4402083DFB0208F5
:1000C0003DFB02083DFB02083DFB0208695D02089A
:1000D000755D0208D1610208DD6102083DFB02087E
:1000E000315902083DFB02083DFB02083DFB0208B6
:1000F0003DFB02083DFB02083DFB0208D5640208F7
:100100003DFB02083DFB0208C5440208815D020870
:100110003DFB02083DFB02083DFB02083DFB0208D7
:10012000E5640208F5640208056502081565020821
:10013000256502083DFB02083DFB02083DFB020865
:100140003DFB02083DFB02083DFB0208AD460208EC
:10015000356502084565020855650208E96102082F
:100160003DFB02083DFB02083DFB02083DFB020887
:100170003DFB02083DFB02083DFB020800000000B9
:100180003DFB02083DFB02083DFB02083DFB020867
:100190008D5D02083DFB02083DFB02083DFB0208A5
:1001A0003DFB02083DFB02083DFB02083DFB020847
:1001B0003DFB0208000000002DE9F04F002383B052
:1001C0001646002205460C461CF000FD002876D19C
:1001D00028462146002200231CF0EEFC30B13022DC
:1001E00000233270737003B0BDE8F08F28462146BB
:1001F0001DF0E0FE1CF028FD21460746019046A3B5
:10020000D3E9002328461CF0F5FC00285DD1019AB3
:10021000454900201DF0E2F802460B4628462146DB
:100220001CF08CFB012705460C46DFF8FC904FF0D4
:10023000000A4FF00008214628461CF005FD00F199
:100240003003337083461CF0E9F902460B4628461A
:1002500021461CF095F84B4642461CF045FA013FFA
:1002600004BF2E23737005460C4614BF01360236B8
:10027000BAF1000F06D1BBF1000F0CBFDA464FF008
:10028000010AD8E70AF1010ABAF1100FD3DD002FF5
:10029000D1DC16F8013C302B06F1FF3603D116F8FD
:1002A000013D302BFBD001982E2B08BF06F1FF3605
:1002B000012826D10023737003B0BDE8F08F2D23F1
:1002C000337004F10044013682E72846214614A326
:1002D000D3E900231CF07AFC002898D0002F18DD09
:1002E0003A46002010491DF079F80B460246214697
:1002F00028461CF023FB0123013705460C460193D9
:1003000093E76523B11C737003B0BDE8F04F0EF0A6
:1003100057BC0127019788E78DEDB5A0F7C6B03E21
:1003200050EFE2D6E41A4B440000244000000000E5
:1003300070B54FF0FF3005F089FE04466FF07F4046
:1003400005F084FE064620461CF058F900220C4BAE
:100350001CF0CAF9044630460D461CF04FF906A3BE
:10036000D3E900231CF0EAFA02460B462046294650
:100370001CF008F870BD00BF0000E0DFFFFF6F4316
:100380000000F03D0000000008B50FF041FF0849F3
:100390001CF000FE1CF054F903A3D3E900231CF069
:1003A000CDFA1CF051FC08BDEA2E4454FB21194043
:1003B0000000B4430000000008B50FF03DFF0849FD
:1003C0001CF0E8FD1CF03CF903A3D3E900231CF06A
:1003D000B5FA1CF039FC08BDEA2E4454FB21194043
:1003E0000000B443000000004F4A21F00043934254
:1003F0002DE970430D4604464FDC4C4A93420E46AD
:100400000FDC45A3D3E900231BF0BCFF0022484BBF
:100410001CF0FAFB002856D02B4620461946BDE8B2
:100420007083444A934242DCB3F1804F4BDD1DF0B0
:10043000CBF92246804689462B46204629461CF0A9
:1004400053F900223A4B1BF09DFF1EF0DBF90246E8
:100450000B46404649461BF095FF02460B460020DE
:1004600033491CF06BFA424604460D464B46404663
:1004700049461BF087FF0B460246294620461BF0E3
:1004800081FF01F0FDFE04460B46002E0BDC03F15C
:10049000004320461946BDE870830B4602461BF018
:1004A00071FF04460B4620461946BDE870831DF0D7
:1004B0008BF901F0E5FE1AA3D3E900231BF062FFDC
:1004C00004460B46E1E722462B46204629461CF00F
:1004D0000BF980468946204629461DF075F9002211
:1004E0000446134B0D46404649461BF04BFF1EF099
:1004F00089F900220E4B1BF045FF02460B46404691
:1005000049461CF01BFA22462B461BF03BFF00F02D
:10051000D3FA04460B46B8E79C7500883CE4377E66
:10052000EF39FAFE422EE63FFFFFEF7FFFFF2F3E3F
:100530000000F03F0000B0412DE9F84FC24B21F020
:1005400000469E420D468A46044610DDBF4B9E4241
:1005500000F3B58000F0B080BD4BBE49BE4CBAF18F
:10056000000FD8BF0B4620461946BDE8F88FBB4B9D
:100570009E4200F3C180A3F1DE739E4240F3AB8044
:100580004FF0FF3B22462B46204629461CF0ACF894
:1005900002460B46804689461CF0A6F892A3D3E992
:1005A000002306460F461CF09FF891A3D3E90023D1
:1005B0001BF0E8FE32463B461CF096F88EA3D3E9CA
:1005C00000231BF0DFFE32463B461CF08DF88CA367
:1005D000D3E900231BF0D6FE32463B461CF084F8DC
:1005E00089A3D3E900231BF0CDFE32463B461CF025
:1005F0007BF887A3D3E900231BF0C4FE42464B4699
:100600001CF072F884A3D3E9002380468946304663
:1006100039461CF069F882A3D3E900231BF0B0FE31
:1006200032463B461CF060F87FA3D3E900231BF061
:10063000A7FE32463B461CF057F87DA3D3E90023C2
:100640001BF09EFE32463B461CF04EF87AA3D3E9DF
:1006500000231BF095FE32463B461CF045F8BBF1EB
:10066000FF3F02460B466ED0404649461BF08AFECD
:1006700022462B461CF038F8794E7A4B4FEACB0BCA
:100680005E449B44DBE900231BF07AFE22462B46A6
:100690001BF076FE0B460246D6E900011BF070FE09
:1006A000BAF1000F04460B46BFF65DAF01F10043FF
:1006B00020461946BDE8F88F00283FF44DAF22468A
:1006C0002B46204629461BF05DFE04460B4620467D
:1006D0001946BDE8F88F5AA3D3E900231BF052FE58
:1006E0000022614B1CF090FA00283FF449AF2B46E2
:1006F00020461946BDE8F88F1DF066F85B4B9E4218
:1007000004460D4630DCA3F550239E4255DC0246DC
:100710000B461BF037FE0022534B1BF031FE00222C
:1007200006460F464FF08043204629461BF02AFE1E
:1007300002460B46304639461CF000F94FF0000BDC
:1007400004460D461EE7404649461BF01BFE224666
:100750002B461BF0C9FF0B460246294620461BF0DC
:100760000FFE04460B46FEE6414B9E421ADC002279
:10077000404B1BF005FE002206460F463D4B20462F
:1007800029461BF0B1FF0022374B1BF0FBFD024650
:100790000B46304639461CF0D1F84FF0020B0446A8
:1007A0000D46EFE602460B46002033491CF0C6F822
:1007B0004FF0030B04460D46E4E600222A4B1BF0E3
:1007C000DFFD002206460F46274B204629461BF038
:1007D000D9FD02460B46304639461CF0AFF84FF0C3
:1007E000010B04460D46CDE611DA22E33AAD903F07
:1007F000EB0D76244B7BA93F513DD0A0660DB13F58
:100800006E204CC5CD45B73FFF8300922449C23FBF
:100810000D5555555555D53F2F6C6A2C44B4A2BF84
:100820009AFDDE522DDEAD3F6D9A74AFF2B0B33F4C
:10083000711623FEC671BC3FC4EB98999999C93FC4
:100840009C7500883CE4377EFFFF0F440000F07F7A
:10085000FB21F93FFB21F9BF182D4454FFFFDB3F7B
:1008600060040308800403080000F03FFFFFF23F2C
:10087000FF7F03400000F83F0000F0BF00000000D1
:100880002DE9F047C1F30A59A9F2FF36132E0B46A2
:100890000D46044607468846824622DC002E4FDB82
:1008A0003D4A42FA06F901EA090202431ED038A382
:1008B000D3E900231BF066FD002200231CF0A4F9FD
:1008C00050B1002D04DD4FF4801343FA06F6B04416
:1008D00028EA09054FF0000A544629462046BDE89B
:1008E000F087332E06DDB6F5806F3DD019462046E1
:1008F000BDE8F087A9F213494FF0FF3222FA09F957
:1009000010EA090FF2D022A3D3E900231BF03AFD2D
:10091000002200231CF078F90028DDD0002D09DD2D
:10092000142E2FD00123C6F1340603FA06F6371928
:1009300028BF9844454627EA090A54462946CDE788
:1009400013A3D3E900231BF01DFD002200231CF09C
:100950005BF90028C0D0002D0FDB55EA040709D051
:100960004FF0000A0D4DB7E702460B461BF00AFD9B
:100970000446BCE7BA463D46AEE74FF0000A4FF0EA
:100980000045A9E705F10108D4E700BFAFF30080F7
:100990009C7500883CE4377EFFFF0F000000F03FAD
:1009A000C1F30A522DE9F843A2F2FF36132E0B468B
:1009B0000D460446884607461DDC002E40DB3C4AB7
:1009C00042FA06F901EA09020243864618D036A324
:1009D000D3E900231BF0D6FC002200231CF014F9FD
:1009E00020B1002D42DB28EA090500273C462946B4
:1009F0002046BDE8F883332E06DDB6F5806F2FD094
:100A000019462046BDE8F883A2F213424FF0FF39A1
:100A100029FA02F910EA090FF2D023A3D3E900233F
:100A20001BF0B0FC002200231CF0EEF80028DDD003
:100A3000002D21DB454627EA09073C462946D7E732
:100A400019A3D3E900231BF09DFC002200231CF016
:100A5000DBF80028CAD0002D19DB00273D46C5E78A
:100A600002460B461BF08EFC0446CAE74FF4801387
:100A700043FA06F6B044B6E7142E10D00123C6F1AF
:100A8000340603FA06F6371928BF9844D2E725F052
:100A90000042084B224318BF1D460027A6E705F178
:100AA0000108C7E7AFF300809C7500883CE4377EFF
:100AB000FFFF0F000000F0BF2DE9F04FD64B994229
:100AC00089B00E460F46824613DCD44B21F0004419
:100AD0009C4218DD0022D24B1CF06EF8002879D021
:100AE000002200230020CF491BF028FF09B0BDE8F9
:100AF000F08FCD4B99422FDD524633461BF042FC1E
:100B000009B0BDE8F08FC94B9C4270DDC84B1F4453
:100B10009F427ED8504631460022C64B1BF032FC25
:100B20004FEA215BABF2FF3BBBF1000F04460D46E1
:100B30000F4640F3E081524633461BF021FC02464B
:100B40000B460020BB491BF01BFC22462B461BF02A
:100B5000F5FECDE900010BE0B74B9F42DADD002244
:100B60000023CDE900234FEA275B5446ABF2FF3B5D
:100B7000B24BC7F313079F4247F07F5500F3E7805E
:100B800045F44015204629460022AA4B1BF0F8FBED
:100B9000002204460D46AA4B1BF0A6FD22462B461A
:100BA0001BF0A2FDA246CDE902012E4680468946F1
:100BB000002F3AD100220023204629461BF0FCFFDB
:100BC000002800F0CE80BBF1000F40F076810020BD
:100BD000014695E752463346504631461BF0D0FB5E
:100BE00002460B461BF0AAFE09B0BDE8F08F0022BA
:100BF000944B1BF0C7FB002200231CF005F80028D3
:100C000000F0CC80904B9C4200F3C88050463146A7
:100C100076E700228A4B1BF067FD524633461BF0F5
:100C200063FD4FF0000B8046894600224FF0804361
:100C3000504631461BF0A6FB02460B465046314655
:100C40001BF07CFE02460B46CDE902231BF04CFD57
:100C50005DA3D3E9002304460D461BF045FD5CA3CC
:100C6000D3E900231BF08EFB22462B461BF03CFDF4
:100C700059A3D3E900231BF085FB22462B461BF02A
:100C800033FD57A3D3E900231BF07CFB22462B4600
:100C90001BF02AFD54A3D3E900231BF073FB22466B
:100CA0002B461BF021FD52A3D3E900231BF06AFB66
:100CB00022462B461BF018FD4FA3D3E900231BF05F
:100CC00061FB22462B461BF00FFD04460D46BBF18F
:100CD000000F00F0BB8058461BF0A0FC48A3D3E9EE
:100CE0000023CDE904011BF0FFFC4246CDE90601DB
:100CF0004B46204629461BF045FBDDE902231BF04D
:100D0000F3FC41A3D3E9002304460D46DDE90401C9
:100D10001BF0EAFCDDE900231BF034FB02460B4626
:100D2000204629461BF02EFB02460B46404649460C
:100D30001BF026FB524633461BF022FB02460B46B5
:100D4000DDE906011BF01CFB09B0BDE8F08F45F49E
:100D50000015C7F5801720462946BF100BF1010B7F
:100D600012E72BA3D3E90023204629461BF0BCFC45
:100D700002460B4600202F491BF002FBDDE902234F
:100D80001BF0B2FC06460F46BBF1000F6DD10246C8
:100D90000B46204629461BF0F3FAB1E6524633468D
:100DA000504631461BF0A0FC0022254B1BF09CFC5A
:100DB00002460B46504631461BF0E2FA09B0BDE848
:100DC000F08F00BFAFF3008044523EDF12F1C23F0C
:100DD0009FC678D0099AC33FDE03CB966446C73FCF
:100DE000AF788E1DC571CC3F599322942449D23FD0
:100DF00004FA97999999D93F935555555555E53F1B
:100E00000000E0FE422EE63F763C7935EF39EA3DC0
:100E1000555555555555E53F7982DA3FFFFFEF3F70
:100E20000000F0BF000050C3FFFFEF7FFFFF1F3E39
:100E30003C412D400000F03FFFFF3F439DA00600D6
:100E40000000E03F00005043FFFF8F3C42464B460E
:100E50001BF098FADDE902231BF046FC02460B4624
:100E6000404649461BF08CFAA2E758461BF0D6FBD9
:100E700027A3D3E9002382468B461BF035FC26A32B
:100E8000D3E9002380468946504659461BF02CFC86
:100E9000DDE900231BF076FA02460B463046394660
:100EA0001BF06EFA22462B461BF06AFA02460B46EE
:100EB000404649461BF064FA22E658461BF0AEFB5A
:100EC00015A3D3E9002306460F461BF00DFCDDE910
:100ED00000231BF057FA0EA3D3E9002304460D4666
:100EE000304639461BF000FC02460B462046294698
:100EF0001BF048FA04E60022094B1BF041FA0246B7
:100F00000B46504631461BF03BFA1EE6AFF300801D
:100F10000000E0FE422EE63F763C7935EF39EA3DAF
:100F20000000F03F0000000008B51CF0C7FF04A35C
:100F3000D3E900231BF002FD08BD00BFAFF3008022
:100F4000EF39FAFE422EE63F2DE9F043DFF8B48098
:100F50008BB004460D4600F06BFF98F9003001336A
:100F600006460F462BD022462B46204629461BF02C
:100F700055FE814618BB204629461CF025FC1CA3C3
:100F8000D3E900231BF040FEC8B11B4A98F900309A
:100F9000CDF820900321CDE90445CDE902458DE847
:100FA00006008BB9154B4FF06042CDE90623684629
:100FB0001EF06CFB70B1089B9BB9DDE906673046FB
:100FC00039460BB0BDE8F0830D490020022BCDE976
:100FD0000601ECD11EF0AAFC22230360089B002B23
:100FE000EBD01EF0A3FC089B0360E6E7AFF30080A4
:100FF0007DF8B98FCE33864040210308FFFFEF47CD
:101000000000F07F9A0300202DE9F043DFF8E48030
:101010008BB004460D4600F0BBFF98F90030013359
:1010200006460F4633D0204629461EF029FB70B3F2
:1010300029A3D3E90023204629461BF0E5FD81467C
:1010400050BB27A3D3E90023204629461BF0BEFD51
:10105000E8B198F90030244ACDF820900426002009
:101060000021022BCDE90445CDE90245009601920D
:10107000CDE9060129D068461EF008FB28B3089B7D
:101080001BB11EF053FC089B0360DDE90667304688
:1010900039460BB0BDE8F083134A98F9003001924D
:1010A00003210022CDE90445CDE9024500910892D3
:1010B0002BB90E4B4FF06042CDE90623DBE70C491C
:1010C0000020022BCDE90601D5D11EF02FFC2223F2
:1010D0000360D4E7AFF30080EF39FAFE422E86407A
:1010E00051302DD5104987C048210308FFFFEF4735
:1010F0000000F07F9A0300202DE9F84FC44E21F044
:101100000043B3420C4605460DDD03F1404303F5B1
:101110008013034340F0B980002940F34081002050
:101120000021BDE8F88FBB4EB34240F3A6800029F2
:10113000C0F2788102460B460020B7491BF020F927
:101140000022B64B1BF0D0FA04460D461DF05AFBA8
:1011500095A3D3E9002389468046294620461BF003
:10116000C3FA93A3D3E900231BF00CF922462B46C4
:101170001BF0BAFA90A3D3E900231BF001F9224631
:101180002B461BF0B1FA8EA3D3E900231BF0FAF82B
:1011900022462B461BF0A8FA8BA3D3E900231BF0B1
:1011A000EFF822462B461BF09FFA89A3D3E90023D0
:1011B0001BF0E8F822462B461BF096FA86A3D3E9EB
:1011C000002382468B46204629461BF08DFA84A3D5
:1011D000D3E900231BF0D4F822462B461BF084FAF7
:1011E00081A3D3E900231BF0CDF822462B461BF048
:1011F0007BFA7FA3D3E900231BF0C2F822462B46DB
:101200001BF072FA0022844B1BF0BCF802460B461E
:10121000504659461BF092FB42464B461BF064FA7F
:10122000002682468B4632464B46304649461BF0E6
:101230005BFA02460B46204629461BF0A1F83246CF
:1012400004460D464B46404649461BF09BF8024675
:101250000B46204629461BF071FB02460B465046C2
:1012600059461BF08FF832464B461BF08BF802466E
:101270000B461BF087F8BDE8F88F694A93420EDCF5
:101280005DA1D1E90001BDE8F88F02460B461BF0D5
:1012900077F802460B461BF051FBBDE8F88F02467B
:1012A0000B461BF021FA40A3D3E9002306460F4664
:1012B0001BF01AFA3EA3D3E900231BF063F8324671
:1012C0003B461BF011FA3CA3D3E900231BF058F86E
:1012D00032463B461BF008FA39A3D3E900231BF042
:1012E00051F832463B461BF0FFF937A3D3E9002300
:1012F0001BF046F832463B461BF0F6F934A3D3E91F
:1013000000231BF03FF832463B461BF0EDF932A3B9
:10131000D3E9002380468946304639461BF0E4F97C
:101320002FA3D3E900231BF02BF832463B461BF0DA
:10133000DBF92DA3D3E900231BF024F832463B460A
:101340001BF0D2F92AA3D3E900231BF019F8324687
:101350003B461BF0C9F900222F4B1BF013F8024645
:101360000B46404649461BF0E9FA2A4623461BF045
:10137000BBF902460B4622A1D1E900011BF000F89F
:1013800002460B46284621461AF0FAFF02460B4653
:1013900019A1D1E900011AF0F3FFBDE8F88F1AA1F5
:1013A000D1E90001BDE8F88F09F7FD0DE13D023FED
:1013B00088B20175E0EF493F3B8F68B52882A43FB2
:1013C0005544880E55C1C93F7D6FEB0312D6D43FFB
:1013D000555555555555C53F82922EB1C5B8B33FA9
:1013E00059018D1B6C06E63FC88A599CE52A0040CE
:1013F0004B2D8A1C273A0340182D4454FB21F93FFA
:10140000075C143326A6913C182D4454FB21094057
:10141000FFFFEF3FFFFFDF3F0000F03F0000E03F36
:101420000000603C00225C4B1AF0ACFF00225B4BDA
:101430001BF05AF940A3D3E9002304460D461BF0E4
:1014400053F93FA3D3E900231AF09CFF22462B4611
:101450001BF04AF93CA3D3E900231AF091FF22467E
:101460002B461BF041F93AA3D3E900231AF08AFF77
:1014700022462B461BF038F937A3D3E900231AF094
:101480007FFF22462B461BF02FF935A3D3E900231B
:101490001AF078FF22462B461BF026F98046894633
:1014A000204629461DF0AEF92FA3D3E900230646B6
:1014B0000F46204629461BF017F92DA3D3E9002338
:1014C0001AF05EFF22462B461BF00EF92AA3D3E941
:1014D00000231AF057FF22462B461BF005F928A3DC
:1014E000D3E900231AF04CFF22462B461BF0FCF8F0
:1014F0000022294B1AF046FF02460B464046494659
:101500001BF01CFA32463B461BF0EEF81EA3D3E953
:1015100000231AF035FF32463B461AF033FF0246ED
:101520000B461AF02FFF02460B4619A1D1E9000124
:101530001AF026FFBDE8F88F09F7FD0DE13D023FE7
:1015400088B20175E0EF493F3B8F68B52882A43F20
:101550005544880E55C1C93F7D6FEB0312D6D43F69
:10156000555555555555C53F82922EB1C5B8B33F17
:1015700059018D1B6C06E63FC88A599CE52A00403C
:101580004B2D8A1C273A0340075C143326A6913C56
:10159000182D4454FB2109400000F03F0000E03FBB
:1015A000434A91422DE9F8430C46054639DD414A4C
:1015B000914209DD02F17952914240DD02460B462B
:1015C0001AF0E0FEBDE8F88301F1404202F5801216
:1015D000024330D0B1F1804F3ADC0022364B1AF092
:1015E000CFFE02460B4604460D461AF0CBFE2246BD
:1015F00006460F462B46204629461BF075F8024644
:101600000B46304639461AF0BDFE1DF0FBF80B467E
:101610000246294620461AF0B5FEBDE8F843FFF71A
:101620004BBA02460B461AF0ABFE02460B461BF0C5
:1016300085F9BDE8F88300200021BDE8F88300F0BB
:101640001FFE19A3D3E900231AF09CFEBDE8F8831E
:1016500002460B461BF048F80022174B1AF090FE8A
:101660001DF0D0F82A468046894623462846214662
:101670001AF088FE424606460F464B46284621464B
:101680001AF080FE02460B4600200B491BF056F96B
:101690000B460246394630461AF072FEBDE8F84362
:1016A00000F0EEBDAFF30080EF39FAFE422EE63FC8
:1016B000FFFFEF3FFFFFAF410000F03F00000000E1
:1016C0002DE9F047C44B21F00048984584B00D4601
:1016D000044616DD08F1404808F58018034658EA2C
:1016E000030326D002460B461AF04AFE0B4602467A
:1016F0001BF024F904460B462046194604B0BDE809
:10170000F087B64B98458A462EDCB8F1795F80F2B7
:101710006D8195A3D3E900231AF034FE0022B04B6B
:101720001BF072FA00B32B462046194604B0BDE800
:10173000F0878FA3D3E900231AF0D6FF8EA3D3E955
:10174000002306460F46204629461AF0CDFF0246E2
:101750000B46304639461AF015FE04460B46204625
:10176000194604B0BDE8F087204629461CF02CF845
:1017700002460B4600209A491AF002FE0022994BBD
:101780001AF0B2FF7EA3D3E9002304460D461AF0F7
:10179000ABFF7DA3D3E900231AF0F4FD22462B46CC
:1017A0001AF0A2FF7AA3D3E900231AF0E9FD22463A
:1017B0002B461AF099FF78A3D3E900231AF0E2FD33
:1017C00022462B461AF090FF75A3D3E900231AF0A6
:1017D000D7FD22462B461AF087FF73A3D3E90023D7
:1017E0001AF0D0FD22462B461AF07EFF70A3D3E9F3
:1017F0000023CDE90001204629461AF075FF6EA3AB
:10180000D3E900231AF0BCFD22462B461AF06CFFE8
:101810006BA3D3E900231AF0B5FD22462B461AF03C
:1018200063FF69A3D3E900231AF0AAFD22462B46E1
:101830001AF05AFF6A4B00221AF0A4FDCDE902010A
:10184000204629461CF0DEFF674B984506460F46AA
:1018500067DCDDE90223DDE900011BF06FF83246A9
:10186000CDE900013B46304639461AF08BFD024671
:101870000B46DDE900011AF037FF4FF00008CDE913
:10188000000142463B46404639461AF02DFF0246CB
:101890000B46204629461AF073FD424604460D4683
:1018A0003B46304639461AF06DFD02460B4620464F
:1018B00029461BF043F802460B461AF063FD024628
:1018C0000B462DA1D1E900011AF05AFD02460B4644
:1018D000DDE900011AF054FD424604460D463B4640
:1018E000404639461AF04EFD02460B4638A1D1E972
:1018F00000011AF045FD02460B46204629461AF023
:101900003FFD0B46024632A1D1E900011AF038FD35
:1019100004460B46BAF1000F3FF7EEAE03F1004369
:10192000EAE6DDE90223DDE900011BF007F83246B3
:101930003B461AF0D9FE32463B461AF023FD0246DA
:101940000B461AF01FFD0CA3D3E900231AF018FD73
:101950000B46024606A1D1E900011AF011FD04462A
:101960000B46D7E7AFF300809C7500883CE4377ED8
:10197000182D4454FB21F93F075C143326A6913CF3
:1019800009F7FD0DE13D023F88B20175E0EF493FE7
:101990003B8F68B52882A43F5544880E55C1C93F86
:1019A0007D6FEB0312D6D43F555555555555C53F60
:1019B00082922EB1C5B8B33F59018D1B6C06E63F2C
:1019C000C88A599CE52A00404B2D8A1C273A0340BF
:1019D000182D4454FB21E93FFFFFEF3FFFFFDF3F9E
:1019E0000000F03F0000E03F3233EF3F02460B467D
:1019F0001AF07AFE38A3D3E9002306460F461AF000
:101A000073FE37A3D3E900231AF0BCFC32463B46F1
:101A10001AF06AFE34A3D3E900231AF0B1FC32466F
:101A20003B461AF061FE32A3D3E900231AF0AAFC68
:101A300032463B461AF058FE2FA3D3E900231AF092
:101A40009FFC32463B461AF04FFE2DA3D3E90023FC
:101A50001AF098FC32463B461AF046FE2AA3D3E918
:101A6000002380468946304639461AF03DFE28A3B9
:101A7000D3E900231AF084FC32463B461AF034FEC8
:101A800025A3D3E900231AF07DFC32463B461AF029
:101A90002BFE23A3D3E900231AF072FC32463B4607
:101AA0001AF022FE0022204B1AF06CFC02460B4674
:101AB000404649461AF042FF22462B461AF014FED1
:101AC00022462B461AF05EFC04460B462046194679
:101AD00004B0BDE8F08700BF09F7FD0DE13D023F0E
:101AE00088B20175E0EF493F3B8F68B52882A43F7B
:101AF0005544880E55C1C93F7D6FEB0312D6D43FC4
:101B0000555555555555C53F82922EB1C5B8B33F71
:101B100059018D1B6C06E63FC88A599CE52A004096
:101B20004B2D8A1C273A03400000F03F00000000C4
:101B30002DE9F84F5442144323F00049704E49EA0E
:101B4000D474B44286460F4640D84442044321F040
:101B5000004B4BEAD474B4428A4637D803F1404470
:101B600004F5801414434AD09C1704F0020444EA9C
:101B7000D17450EA0B0131D052EA090137D0B14596
:101B800052D0B34533D0ABEB09094FEA2959B9F12B
:101B90003C0F3BDC002B66DB704639461AF0CEFE6C
:101BA0001BF012FEFEF7C8FC012C58D0022C48D0C6
:101BB000002C5ED040A3D3E900231AF0E1FB40A340
:101BC000D3E900231AF0DCFBBDE8F88F1046194674
:101BD00072463B461AF0D6FBBDE8F88F022C19D0AE
:101BE000032C10D138A1D1E90001BDE8F88FBAF17A
:101BF000000F14DB36A1D1E90001BDE8F88FBDE884
:101C0000F84FFEF799BC3946BDE8F88F30A1D1E90D
:101C10000001C9E72AA1D1E90001BDE8F88F2EA192
:101C2000D1E90001BDE8F88FCB4524D0022CF1D0DA
:101C3000032CD7D0012C4FF0000027D00021BDE8A5
:101C4000F88F1DA3D3E900231AF09AFB02460B4636
:101C50001BA1D1E900011AF093FBBDE8F88F01F157
:101C60000041BDE8F88F19F13C0F95DA0020002102
:101C70009AE7BDE8F88F022C16D0032C0FD0012C68
:101C800008D017A1D1E90001BDE8F88F4FF000415D
:101C9000BDE8F88F14A1D1E90001BDE8F88F14A1C7
:101CA000D1E90001BDE8F88F13A1D1E90001BDE839
:101CB000F88F00BFAFF30080075C143326A6A13C69
:101CC000182D4454FB210940182D4454FB2109C010
:101CD000182D4454FB21F93F182D4454FB21F9BF22
:101CE000182D4454FB21E93F182D4454FB21E9BF32
:101CF000D221337F7CD902C0D221337F7CD90240EC
:101D00000000F07F0000000043422DE9F04703434C
:101D100021F00048424A48EAD373934206460F46F0
:101D200016D890454BD03F4B98458A461EDC3AA3C7
:101D3000D3E9002304461AF025FB002200231AF001
:101D400063FF002845D03B4620461946BDE8F08792
:101D500002460B461AF014FB0B4602461AF0EEFD43
:101D600004460B4620461946BDE8F0872E4B9845A1
:101D7000044645462FDD0246434641461AF002FB23
:101D8000224606460F464346002025491AF0F8FA37
:101D900002460B46304639461AF0D0FDFEF78CFE5F
:101DA000224B00221AF0A0FCBAF1000F04460B46A9
:101DB000D8DA01F1004320461946BDE8F087002239
:101DC00000231AF0BBFD04460B4620461946BDE829
:101DD000F0873446454622462B46204629461AF0CF
:101DE000D1FA22462B4606460F461AF07DFC2246C3
:101DF000804689462B46002009491AF0C1FA02465E
:101E00000B46404649461AF099FD32463B461AF0C9
:101E1000B9FAC3E7AFF300809C7500883CE4377ED5
:101E20000000F03FFFFF2F3EFFFFDF3F0000E03FDD
:101E30004F4A2DE9F84321F0004494420B460546F1
:101E40001BDC4C4A944222DD4B4A944263DD4B4AF0
:101E500094427BDD4A4A944246DD0132944240D0AE
:101E600041A3D3E90023104619461AF03DFC06466B
:101E70000F4630463946BDE8F88302460B461AF055
:101E800033FC06460F4630463946BDE8F8831BF062
:101E90009BFC02F0A9FC00223A4B804689461AF0CE
:101EA00071FAB4F1725F06460F46ECDB42464B46D0
:101EB000404649461AF018FC32463B4604460D4659
:101EC000304639461AF05EFA02460B46204629464D
:101ED0001AF034FD00222B4B1AF054FA06460F4636
:101EE000D1E7294A9042BBD8284619461BF06CFC22
:101EF0000022264B1AF0F8FB00F04AF800220446B4
:101F00000D46224B1AF0F0FB22462B461AF0ECFB52
:101F100006460F46B7E71BF057FC00F039F80022E1
:101F20001A4B06460F461AF0DFFB32463B46044684
:101F30000D46002015491AF001FD02460B462046C9
:101F400029461AF01FFA06460F469CE71BF03CFC98
:101F500000F01EF800220D4B1AF0C6FB06460F4695
:101F600091E700BFAFF300809C7500883CE4377EAA
:101F7000FFFFEF7F422ED63FFFFF3540412E8640C8
:101F8000CD3386400000F03F7DF8B98F0000E03F80
:101F90002DE9F04FB04F21F00042BA4283B00C4619
:101FA0004FEAD17605460DD9AC4FBA4225D9C1F3D7
:101FB0001303034340F0EF800EB10020014603B04D
:101FC000BDE8F08FA64B9A4200F2CC80A54B9A4216
:101FD00000F2DE808AA3D3E900231AF0D3F90022AD
:101FE000A14B1AF011FE002800F005812846214679
:101FF00000229D4B1AF0C6F9E1E783A3D3E9002341
:102000001AF002FE002840F0CB802846214680A32B
:10201000D3E900231AF0DAFD0028CED1934B2846ED
:1020200003EBC60621467CA3D3E900231AF05CFB30
:10203000D6E900231AF0A6F91AF006FE80461AF037
:10204000EDFA77A3D3E9002306460F461AF04CFBBE
:1020500002460B46284621461AF092F972A3D3E9AC
:102060000023CDE90001304639461AF03DFB824697
:102070008B4652465B46DDE900011AF081F90546C0
:102080000C462A462346284621461AF02DFB68A313
:10209000D3E9002306460F461AF026FB66A3D3E9D0
:1020A00000231AF06DF932463B461AF01DFB64A37B
:1020B000D3E900231AF066F932463B461AF014FBC6
:1020C00061A3D3E900231AF05BF932463B461AF0CC
:1020D0000BFB5FA3D3E900231AF054F932463B46C9
:1020E0001AF002FB02460B46284621461AF048F930
:1020F00006460F462846214632463B46B8F1000FB9
:1021000056D01AF0F1FA324604460D463B460020FE
:102110004FF080411AF034F902460B46204629461A
:102120001AF00CFC02460B46504659461AF028F9A4
:10213000DDE900231AF024F90B4602464A49002043
:102140001AF01EF96FF47F7398454FDA08F57A7824
:1021500001EB085100224FF0B8731AF0C5FA03B032
:10216000BDE8F08F424B9A423FF658AF414BF40026
:102170002344D3E900231AF003F93F4BC6F10108C9
:102180002344CDE90001D3E900ABA8EB060870E7D2
:102190004FF0000875E702460B461AF0F3F80EE719
:1021A00017A3D3E90023104619461AF09DFA06E753
:1021B0001AF09AFA0022804689464FF08043304652
:1021C00039461AF0DDF802460B46404649461AF0F9
:1021D000B5FB2A4623461AF0D3F802460B460020E8
:1021E00021491AF0CDF803B0BDE8F08F01EB08519A
:1021F00003B0BDE8F08F804643E700BFAFF3008037
:102200009C7500883CE4377EEF39FAFE422E86400A
:1022100051302DD5104987C0FE822B654715F73FF9
:102220000000E0FE422EE63F763C7935EF39EA3D8C
:10223000D0A4BE726937663EF16BD2C541BDBB3ECC
:102240002CDE25AF6A56113F93BDBE166CC1663FAA
:102250003E5555555555C53F412E8640FFFFEF7FF2
:10226000422ED63FFFFF2F3E0000F03FA0040308A0
:10227000B1A2F03FB0040308C0040308000000004E
:102280002DE9F04FB1F5801F85B006460F460B468D
:102290005ADA024621F00044224300F0F880002977
:1022A000C0F27A810022D64B1AF01EFAD54A0B46AC
:1022B000934206460F466FF0350C4ADCC3F3130514
:1022C00005F5152E0EF6647E0EF4801E8EF07F52FC
:1022D00082F440121C1542EA0507A4F2FF3464445C
:1022E0000022C94B3046394604EB1E541AF048F818
:1022F000AB1CC3F31303022B82468B464FF0000244
:1023000030DC00231AF058FC002800F0C980002CB3
:1023100000F04B8120461AF081F9A5A3D3E90023F0
:1023200006460F461AF0E0F9A3A3D3E900230446BA
:102330000D46304639461AF0D7F902460B4620467C
:1023400029461AF01FF80AE0AE4A93424FF0000CFB
:10235000B4DD32463B46304639461AF013F805B034
:10236000BDE8F08F4FF080431AF00CF802460B46A0
:10237000504659461AF0E2FA064620460F461AF031
:102380004DF93246CDE900013B4630463946CDE9AC
:1023900002671AF0A9F902460B46804689461AF0F0
:1023A000A3F987A3D3E9002306460F461AF09CF948
:1023B00085A3D3E9002319F0E5FF32463B461AF026
:1023C00093F983A3D3E9002319F0DCFF32463B469F
:1023D0001AF08AF980A3D3E9002319F0D3FF42460B
:1023E0004B461AF081F97EA3D3E900238046894643
:1023F000304639461AF078F97BA3D3E9002319F067
:10240000C1FF32463B461AF06FF979A3D3E90023A6
:1024100019F0B8FF32463B461AF066F90B46024601
:102420004946404619F0AEFFA5F5C223C5F5D725AC
:10243000A3F27A4351351D43002D8046894656DD6F
:102440000022724B504659461AF04EF952465B46EE
:102450001AF04AF906460F46002C68D132463B4630
:102460004046494619F08EFFDDE902231AF03CF997
:1024700002460B463046394619F082FF02460B46AB
:102480005046594619F07CFF05B0BDE8F08F002298
:10249000002300205E491AF051FA05B0BDE8F08F24
:1024A00055A3D3E90023504659461AF01DF90246B8
:1024B0000B460020554919F063FF524606460F4669
:1024C0005B46504659461AF00FF902460B46304615
:1024D00039461AF009F906460F46002C40F09A805A
:1024E00002460B465046594619F04AFF37E7002C82
:1024F00000F0A4802EA3D3E90023DDE900011AF047
:10250000F3F842464B4604460D465046594619F0EC
:1025100037FFDDE902231AF0E7F827A3D3E9002308
:1025200006460F46DDE900011AF0DEF821E020A39F
:10253000D3E90023DDE900011AF0D6F832463B4624
:1025400004460D464046494619F01CFFDDE90223CA
:102550001AF0CAF818A3D3E9002380468946DDE9BA
:1025600000011AF0C1F802460B464046494619F0F0
:1025700009FF02460B463046394619F001FF524624
:102580005B4619F0FDFE02460B462046294619F02F
:10259000F7FE05B0BDE8F08F02460B4619F0F0FEDD
:1025A000002200231AF0CAF9D9E600200021D6E65D
:1025B0000000E0FE422EE63F763C7935EF39EA3DF9
:1025C00044523EDF12F1C23FDE03CB966446C73F62
:1025D000599322942449D23F935555555555E53F7B
:1025E0009FC678D0099AC33FAF788E1DC571CC3F86
:1025F00004FA97999999D93F555555555555D53F51
:1026000000005043FFFFEF7F0000F03F0000E03F7D
:10261000000050C320461AF001F80FA3D3E90023AD
:10262000804689461AF060F80DA3D3E900230446DA
:102630000D46404649461AF057F89AE702460B46BF
:102640005046594619F09CFEDDE902231AF04CF879
:1026500014E700BFAFF300800000E0FE422EE63F2B
:10266000763C7935EF39EA3DB1F5801F2DE9F84325
:1026700004460D460B461ADA024621F00046324364
:1026800059D000295FDB00223B4B1AF02DF83B4A62
:102690000B4693420D4604466FF035010CDD224691
:1026A0002B462046294619F06DFEBDE8F883334AD3
:1026B00093424FF00001F2DC1815A0F2FF300844FD
:1026C0004FEAD0794844C3F3130819F0A7FFC9F5BE
:1026D0007F73033348EA035506460F4620462946D2
:1026E000FFF7CEFD1EA3D3E900238046894630467E
:1026F000394619F0F9FF1CA3D3E9002304460D461F
:102700004046494619F0F0FF02460B46204629464E
:1027100019F038FE16A3D3E9002304460D463046CF
:10272000394619F0E1FF02460B462046294619F0CA
:1027300029FEBDE8F88300220023002010491AF08A
:10274000FDF8BDE8F88302460B4619F019FE002299
:1027500000231AF0F3F8BDE8F88300BFAFF3008060
:10276000362BF111F3FE593D0EE526157BCBDB3FF1
:1027700000609F501344D33F00005043FFFFEF7FA2
:10278000000050C3000000002DE9F04F23F0004787
:1027900057EA020493B037D0674C21F00046A642B6
:1027A00083460D4629DC9A46964625D0A74224DC6E
:1027B000614CA74279D0002D89468046CDE900239F
:1027C00077DB0024BEF1000F2CD15B4B9F4200F061
:1027D0008B805A4B9F4261D0BAF1804F00F0BA8390
:1027E000574B9A451ED1002D1CDB4046494613B07D
:1027F000BDE8F04F1CF006B858B106F1404606F5AA
:10280000801656EA0B0306D14C49002013B0BDE8F0
:10281000F08FB742CCDD4B4813B0BDE8F04F1CF051
:1028200037BF0024404649461AF0CEFFBBF1000FE7
:1028300019D126B1414B25F040429A4213D1BAF149
:10284000000FC0F2BC83002DE0DA06F1404606F529
:10285000801656EA040300F08F84012CD6D101F1D2
:1028600000431946D2E7ED0F013D54EA05034ED06F
:10287000354B9F426EDD03F104739F4240F3E883C2
:10288000324B9E424EDDBAF1000F4EDD28A3D3E954
:1028900000231046194619F027FFB7E7BAF1000FD9
:1028A000C0F23C8440464946B0E7BEF1000F82D0FA
:1028B000A3E7274B9F4228DCA3F154739F4280DD9E
:1028C0003B15A3F2FF33142B40F33E84C3F13403D2
:1028D0002EFA03F202FA03F39E457FF472AF02F080
:1028E0000102C2F102046DE706F1404303F58013D3
:1028F00053EA0B0388D0154B9E4240F33283BAF162
:10290000000F12DBDDE9000180E702245AE74246AE
:102910004B464046494619F033FD02460B461AF035
:102920000DF873E7BAF1000FB0DB002000216DE76E
:102930009C7500883CE4377E0000F07F0000F03F8B
:102940000000E03FEC0903080000E041FFFFEF3F1B
:10295000FFFF3F43B6F5801F4FF0000205DAD44B6E
:1029600019F0C2FE6FF034020E463315D14FC6F394
:102970001306A3F2FF33134446F07F5ABE421A46B1
:102980000D934AF4401A40F32183CB4B9E4240F30F
:10299000FD83134601330D93C84B0022CDE9062376
:1029A00000270026CDE90867CDE90E67AAF5801A51
:1029B0000027024653465146CDE90A23DDE90623A6
:1029C00019F0DEFCDDE9062380468946DDE90A01CF
:1029D00019F0D8FC02460B460020B84919F0AEFFAA
:1029E0000A460146CDE910121346494602464046C2
:1029F00019F07AFE4FEA6A0343F000538C4683468F
:102A000003F50023CDE904BCDA468B46D91900232F
:102A1000CDE902AB0293DDE902AB002006460F468A
:102A200002460B465046594619F05EFE02460B46DA
:102A30004046494619F0A4FCDDE906238046894654
:102A40003046394619F09CFC02460B46DDE90A0186
:102A500019F096FC52465B4619F046FE02460B46BC
:102A60004046494619F08CFCDDE9102319F03CFE84
:102A7000DDE90467CDE9060132463B46304639467A
:102A800019F032FE78A3D3E9002306460F4619F069
:102A90002BFE77A3D3E9002319F074FC32463B46A2
:102AA00019F022FE74A3D3E9002319F06BFC32461F
:102AB0003B4619F019FE72A3D3E9002319F062FC1A
:102AC00032463B4619F010FE6FA3D3E9002319F0FC
:102AD00059FC32463B4619F007FE6DA3D3E90023AB
:102AE00019F050FC3246804689463B46304639460E
:102AF00019F0FAFD02460B464046494619F0F4FD2E
:102B0000524606460F465B46DDE9040119F03AFCE1
:102B1000DDE9062319F0E8FD32463B4619F032FCA8
:102B20005246804689465B465046594619F0DCFDC0
:102B30000022634BCDE90A0119F024FC42464B46C2
:102B400019F020FC02980F46064632463B46504696
:102B5000594619F0C9FD002282468B46584B304633
:102B6000394619F00DFCDDE90A2319F009FC02468B
:102B70000B464046494619F003FCDDE9042319F0F1
:102B8000B3FD3246804689463B46DDE9060119F031
:102B9000ABFD02460B464046494619F0F3FB804622
:102BA000894602460B4650465946CDE904AB19F01A
:102BB000E9FBDDE902AB38A3D3E9002350460F4619
:102BC00019F092FDDDE90423CDE9020139465046B2
:102BD00019F0D6FB02460B464046494619F0D0FB99
:102BE0002FA3D3E9002319F07FFD2FA3D3E90023FE
:102BF000804689465046394619F076FD02460B4616
:102C00004046494619F0BEFBDDE90E2319F0BAFB38
:102C100080460D98894619F001FD424606460F464A
:102C20004B46DDE9020119F0ADFBDDE9082319F09F
:102C3000A9FB32463B4619F0A5FB32463B465046BF
:102C40008B4619F09DFBDDE9082319F099FBDDE9BE
:102C5000022319F095FB02460B464046494619F0FF
:102C60008FFB80462EE000BFEF4E454A287ECA3FCC
:102C700065DBC9934A86CD3F01411DA96074D13FF0
:102C80004D268F515555D53FFFAB6FDBB66DDB3F02
:102C9000033333333333E33F000000E009C7EE3F33
:102CA000FD033ADC09C7EE3FF5015B14E02F3EBEA1
:102CB000000040438E98030079B60B000000F03FFF
:102CC000000008408946013C54EA0503DDE90001A3
:102CD00014BFD94CD94C0023CDE9043403460C462B
:102CE000CDE9023400230293DDE9024522462B465A
:102CF00019F046FB52465B4619F0F6FCDDE900236D
:102D000006460F464046494619F0EEFC02460B4681
:102D10003046394619F036FB2246804689462B4616
:102D200050465946CDE9008919F0DEFC0B460246B3
:102D300006460F464046494619F024FBC04B9942CF
:102D400004460D468A4640F3168101F13F4303F5E0
:102D5000E003034340F0EA81A3A3D3E90023DDE9C4
:102D6000000119F00FFB3246804689463B4620465B
:102D7000294619F005FB02460B464046494619F024
:102D800043FF002840F0D281A8464FEA28534FF471
:102D90008012A3F2FE3342FA03F35344C3F30A5200
:102DA000A84DA2F2FF321541C3F3130423EA050133
:102DB0000020C2F1140B44F48014BAF1000F024653
:102DC0000B4644FA0BFB30463946B8BFCBF1000B3B
:102DD00019F0D6FA02460B4606460F46DDE9000119
:102DE00019F0D0FA4FEA0B5A0D46002480A3D3E91C
:102DF00000232046294619F077FC32468046894652
:102E00003B462046294619F0BBFA02460B46DDE94F
:102E1000000119F0B5FA78A3D3E9002319F064FC96
:102E200077A3D3E9002306460F462046294619F02A
:102E30005BFC02460B463046394619F0A3FA0646BB
:102E40000F4602460B464046494619F09BFA424659
:102E50004B4604460D4619F093FA02460B4630469F
:102E6000394619F08DFA2246804689462B4620467F
:102E7000294619F039FC64A3D3E9002306460F461E
:102E800019F032FC62A3D3E9002319F079FA324633
:102E90003B4619F029FC60A3D3E9002319F072FA2C
:102EA00032463B4619F020FC5DA3D3E9002319F01C
:102EB00067FA32463B4619F017FC5BA3D3E90023BF
:102EC00019F060FA32463B4619F00EFC02460B46FA
:102ED0002046294619F054FA06460F4602460B468C
:102EE0002046294619F000FC0022CDE900014FF0F0
:102EF00080433046394619F043FA02460B46DDE975
:102F0000000119F01BFD424606460F464B4620467F
:102F1000294619F0E9FB42464B4619F033FA0246BE
:102F20000B463046394619F02BFA22462B4619F04B
:102F300027FA02460B4600203F4919F021FA8A443D
:102F4000BAF5801FC0F233815146DDE9042319F040
:102F5000CBFB5BE4424640464B46494619F0C4FB76
:102F600054E4BAF1000FBFF6E0ACDDE900341846D6
:102F700004F100414AE4344B21F00048984540F305
:102F8000F280324B0B4403430CD132463B4619F0DE
:102F9000F7F902460B46DDE9000119F021FE002891
:102FA0003FF4F3AEDDE9040121A3D3E9002319F0D6
:102FB0009BFB1FA3D3E9002319F096FB26E40246EE
:102FC0000B4600201C4919F0B9FC3CE40022002308
:102FD000CDE90823CDE90E23174B00220027CDE9C8
:102FE0000623E6E4AFF30080FE822B654715973C8D
:102FF00000000000432EE63FEF39FAFE422EE63F86
:10300000396CA80C615C20BED0A4BE726937663EE4
:10301000F16BD2C541BDBB3E2CDE25AF6A56113FD8
:1030200093BDBE166CC1663F3E5555555555C53FBF
:1030300059F3F8C21F6EA5010000F03F0000F0BF79
:10304000FFFF8F40FFFF0F00FFCB904000346F3F2A
:103050006B4B9E427FF766AC6A4B9E423FF713ACC8
:103060000022684B19F08CF957A3D3E900230646D8
:103070000F4619F039FB56A3D3E900238046894651
:103080003046394619F030FB002282468B465E4BB3
:103090003046394619F028FB02460B464EA1D1E9CD
:1030A000000119F06DF932463B4619F01DFB02464E
:1030B0000B460020554919F063F93246CDE902016B
:1030C0003B463046394619F00FFB02460B46DDE918
:1030D000020119F009FB42A3D3E9002319F004FB14
:1030E00002460B465046594619F04AF902460B462D
:1030F00006460F464046494619F044F942464B46BB
:10310000002082468B4619F03BF902460B463046BA
:10311000394619F035F980468946D4E542464B4692
:103120000020384919F00AFCFFF770BBDDE9040103
:103130002DA3D3E9002319F0D7FA2BA3D3E9002359
:1031400019F0D2FAFFF762BBBEF1000F7FF469AB52
:10315000C3F1140347FA03F202FA03F39F422AD0A1
:103160007446FFF736BB294B98453FF70EAEDDE9B5
:1031700002239246934638E602460B4619F000F9C0
:1031800002460B4619F0DAFBFFF740BB18A3D3E960
:103190000023CDE9082318A3D3E90023CDE90E23AA
:1031A0001B4B00224FF48027CDE9062301E45A4649
:1031B00001F05AFDC9E602F00102C2F10204FFF774
:1031C00008BB00BFAFF30080000000604715F73F69
:1031D00044DF5DF80BAE543E555555555555D53F1A
:1031E000FE822B654715F73F9C7500883CE4377ECF
:1031F0000000004003B8E23F06D0CF43EBFD4C3E59
:10320000FEFFEF3F0000F03F0000D03F0000E03F36
:103210000000F83F000000002DE9F04F9A4E21F029
:103220000047B74291B040F38E809246974A97424A
:103230000C4626DC00298AA3D3E9002340F3B4819D
:1032400019F09EF8924B9F4204460D4600F0908084
:1032500085A3D3E9002319F093F802460B46CAE987
:1032600000232046294619F08BF87FA3D3E90023D9
:1032700019F086F80125CAE90201284611B0BDE817
:10328000F08F844A974240F39080834A974265DCEE
:103290003D15A5F21645A7EB055319461F460646F0
:1032A00019F0D2FC19F0BAF98046894602460B465D
:1032B00030463946CDE90A8919F062F80022774B89
:1032C00019F012FA8946804619F0BEFC19F0A6F9E9
:1032D00002460B4606460F4640464946CDE90C6776
:1032E00019F04EF800226D4B19F0FEF90022002370
:1032F000CDE90E0119F060FC002800F07381002375
:1033000030463946002219F057FC002814BF01232B
:103310000223634A019202212A4600910AA85146DB
:1033200000F086FB002C054614DADAF80420DAF8FF
:103330000C3002F1004203F100434542CAF8042078
:10334000CAF80C3006E0C2E9000100250024C2E9F9
:1033500002450025284611B0BDE8F08F02460B4615
:1033600019F00EF80025CAE90201CAE90001F1E7E7
:103370003FA3D3E9002319F003F83FA3D3E90023C7
:103380000D46044618F0FCFF02460B46CAE900232E
:103390002946204618F0F4FF37A3D3E9002318F09C
:1033A000EFFF0125CAE90201D4E71AF00DFA34A3B0
:1033B000D3E900238046894619F096F90022394B5B
:1033C00018F0E0FF19F040FC054619F027F924A396
:1033D000D3E90023CDE9040119F086F902460B4632
:1033E0004046494618F0CCFF1FA3D3E9002380468E
:1033F0008946DDE9040119F077F91F2DCDE90201B5
:1034000054DC294B6A1E53F822309F424ED00246AC
:103410000B464046494618F0B3FF02460B46CAE940
:10342000002383460E465A4633464046494618F026
:10343000A7FFDDE9022318F0A3FF002C02460B468C
:10344000CAE9022386DA5B4606F1004601F1004133
:103450008AE84800CAF80C10CAF808006D4279E7FB
:1034600000004054FB21F93F3163621A61B4D03D42
:103470000000601A61B4D03D7370032E8A19A33B1B
:1034800083C8C96D305FE43FFB21E93F7BD902402F
:10349000FB21F93FFB213941FFFFEF7F0000704125
:1034A000FC2103080000E03F7C210308DDE9022342
:1034B0004046494618F064FF3A15C1F30A53D31A3F
:1034C000102B83460E460992CAE90001ABDD58A3D2
:1034D000D3E90023DDE9040119F006F906460F4699
:1034E00002460B464046494618F04AFFCDE9060120
:1034F00002460B464046494618F042FF32463B46DC
:1035000018F03EFF4CA3D3E9002306460F46DDE941
:10351000040119F0E9F832463B4618F031FFDDE9C5
:103520000689CDE9020102460B464046494618F09D
:1035300027FF0B46C1F30A570E460999CF1B0246D7
:10354000312F8346CAE900236CDD3DA3D3E9002374
:10355000DDE9040119F0C8F806460F4602460B469D
:1035600040464946CDE9068918F00AFF02460B4657
:1035700080468946DDE9060118F002FF32463B46E7
:1035800018F0FEFE30A3D3E9002306460F46DDE91E
:10359000040119F0A9F832463B4618F0F1FE024644
:1035A0000B46CDE9022334E718F0ECFE2A4B9F428C
:1035B00004460D4618D026A3D3E9002318F0E2FEF6
:1035C00002460B46CAE900232946204618F0D8FED9
:1035D0001FA3D3E9002318F0D5FE4FF0FF35CAE949
:1035E0000201B7E6032394E611A3D3E9002318F000
:1035F000C9FE11A3D3E900230D46044618F0C2FE0C
:1036000002460B46CAE900232946204618F0B8FEB8
:1036100009A3D3E9002318F0B5FE4FF0FF35CAE93E
:10362000020197E6DDE90689FDE600BFAFF3008001
:103630000000601A61B4D03D7370032E8A19A33B59
:103640000000002E8A19A33BC14920259A837B39AB
:103650003163621A61B4D03DFB21F93F00000000E4
:10366000574A2DE9F84F21F0004890450E4607468D
:103670002BDC544B0029B4BF534D544D98454FF0AB
:10368000000410DC524B98456EDC4BA3D3E90023B9
:1036900018F078FE00224F4B19F0B6FAD8B1384630
:1036A0003146BDE8F88F4C4B984579DD4B4B98453A
:1036B00043DD013398453DD0384631463EA3D3E93A
:1036C000002319F011F8BDE8F88F02460B4618F0F8
:1036D00059FEBDE8F88F384631461AF075F801F00A
:1036E00083F806460F4632463B463046394618F0C8
:1036F00049FE324682468B463B463046394618F0F4
:10370000F3FF002280468946324B3046394618F096
:1037100039FE02460B464046494619F00FF902466B
:103720000B465046594618F02BFE22462B4618F001
:10373000DBFFCEE72A4B9842BED8384631461AF016
:1037400043F80022214B18F0CFFFFEF721FC06467C
:103750000F4602460B462046294618F0C5FF324662
:103760003B4618F0C1FFB4E71AF02EF801F03CF820
:103770001C4B984506460F46B5DD0022154B18F048
:1037800001FE02460B463046394619F0D7F832465C
:103790003B4618F0F7FD22462B4618F0A5FF98E7A8
:1037A0001AF012F8FEF7F4FB02460B4620462946B3
:1037B00018F09AFF8DE700BF3374AC3C1F7BAC7FE1
:1037C000FFFFEF7FFFFF35400000E0BF0000E03F5C
:1037D000FFFF2F3E0000F03F412E8640CD33864054
:1037E0007DF8B98FFFFFEF3F2DE9F04F21F0004644
:1037F000B6F1795F85B00C4692469B4605466BDA7A
:1038000019F022FA002800F0E8802A4623462846CC
:10381000214618F069FF74A3D3E900238046894646
:1038200018F062FF72A3D3E9002318F0ABFD424603
:103830004B4618F059FF70A3D3E9002318F0A0FD00
:1038400042464B4618F050FF6DA3D3E9002318F011
:1038500099FD42464B4618F047FF6BA3D3E900237E
:1038600018F08EFD42464B4618F03EFF68A3D3E9A0
:10387000002318F087FD42464B4618F035FFCDE98E
:1038800000010022644B4046494618F02DFFDDE957
:10389000002306460F464046494618F025FF52468B
:1038A000804689465B462846214618F01DFF0246A1
:1038B0000B464046494618F063FD02460B4630462B
:1038C000394618F05DFD02460B460020534918F0BA
:1038D00057FD05B0BDE8F08F02460B4618F004FF17
:1038E00041A3D3E900238046894618F0FDFE40A39A
:1038F000D3E9002318F046FD42464B4618F0F4FE8B
:103900003DA3D3E9002318F03BFD42464B4618F097
:10391000EBFE3BA3D3E9002318F034FD42464B46AF
:1039200018F0E2FE38A3D3E9002318F029FD42463F
:103930004B4618F0D9FE36A3D3E9002318F022FD38
:103940004B46424618F0D0FE354B9E42CDE9000171
:1039500097DD344B9E424FF0000238DCA6F5001391
:1039600000202E4916461F4618F00AFDCDE9020137
:103970000022294B4046494618F0B6FE32463B46E7
:1039800018F0FEFCDDE9002306460F464046494696
:1039900018F0AAFE5246804689465B4628462146D4
:1039A00018F0A2FE02460B464046494618F0E8FCD5
:1039B00002460B463046394618F0E2FC02460B46FA
:1039C000DDE9020118F0DCFC05B0BDE8F08F164B14
:1039D000164FCDE902230026CAE71049002005B0A2
:1039E000BDE8F08FAFF30080D43888BEE9FAA8BDF7
:1039F000C4B1B4BD9EEE213EAD529C804F7E923E3E
:103A00009015CB19A001FA3E7751C1166CC1563FF3
:103A10004C5555555555A53F0000E03F0000F03F7F
:103A20003233D33F0000E93F0000E73F0000D23FC0
:103A30002DE9F04FADF5197D9C4CA29E9C4D54F89C
:103A4000264005942646D41E85FB0475E417C4EB76
:103A5000A50424EAE4741D460893631CA3EB8303C6
:103A6000013D02EBC30304932B4609940295651BA9
:103A7000F418039006911AD42C4401340DF17808FF
:103A800000260027DDF88C9208E059F8250018F090
:103A9000C5FD0135A542E8E9020108D0002DF4DAA0
:103AA000013530463946A542E8E90201F6D1059BC9
:103AB000002B2EDB089B4FEAC309039BA9F10808E2
:103AC000984420AB9944059B70AA02EBC30B0DF5FB
:103AD000DC7A029B002BC0F20F83039B4D46A3F1BF
:103AE00008040026002775E90223F4E9020118F012
:103AF000FBFD02460B463046394618F043FC444570
:103B000006460F46EFD1EAE90267DA4509F10809EE
:103B1000DFD10598089A009000F18043013B9B009B
:103B20000CAC191F234402F100520B93039B013A82
:103B300021440A9103EBC20B009A98A901EBC2033E
:103B4000002A53E9284513462BDD01EBC308A8F1F1
:103B5000A8080DF12C090DF5DC7A0022554B204602
:103B6000294618F0C1FD19F06FF818F057FD002232
:103B7000514B06460F4618F0B7FD02460B4620464D
:103B8000294618F0FDFB19F05FF878E8022349F8A0
:103B9000040F3946304618F0F5FBD04504460D4673
:103BA000DBD1DDF81090204629464A4601F05CF84A
:103BB00000224FF07F5304460D4618F095FDFCF7A8
:103BC000EFFE00223D4B18F08FFD02460B462046CB
:103BD000294618F0D5FB0D46044619F035F8804605
:103BE00018F01CFD0B4602462946204618F0C8FB7B
:103BF0004B46002B06460F4640F3F780009A0CA96F
:103C0000013AC9F1180351F8225045FA03F101FABB
:103C100003F30CA8EB1A40F82230C9F117058844C9
:103C200043FA05F5002D63DD009B002B08F1010828
:103C300040F381820C9C002C00F0188301200023AB
:103C40000CAAC4F1807442F82340009A824219DD24
:103C50000CAA0CAC52F820106FF07F42511A44F8B5
:103C600020100099023399420CDD1046009A0CA9ED
:103C700001EB830301EB82011A68821A43F8042BDB
:103C80008B42F9D1049B002B1ADD049B012B4FF0D2
:103C9000010440F05882009B5A1E0CAB0CA953F84B
:103CA0002230C3F3160341F8223058E29C26030861
:103CB000ABAAAA2A0000703E00007041000020401C
:103CC000022D15D132463B460020974918F058FB8B
:103CD00006460F46049A9449002000F0C5FF0246AC
:103CE0000B463046394618F04BFB022506460F4678
:103CF000002200233046394618F05EFF002800F00D
:103D00005282009A059B501E83420FDC02F18043D1
:103D1000013B0CAA0B9C02EB8303002253F804190D
:103D2000A34242EA0102F9D1002A6FD1059B0CAAF5
:103D3000013B52F82330002B40F033820A9A0123D2
:103D400052F8041901330029FAD0009AD31802F16D
:103D5000010A9A4507933DDC009B0899099A0B4498
:103D600007990AEB0208994620AB08F1804803EB5B
:103D7000C9098B18A39A08F1FF3802EB880870AACA
:103D800002EBCA0AA39A02EB8303009358F8040FCC
:103D900018F044FC029B002BE9E802011DDB039BA9
:103DA0004D46A3F108040026002775E90223F4E933
:103DB000020118F099FC02460B463046394618F0CD
:103DC000E1FA5C4506460F46EFD1009B9845EAE8CC
:103DD0000267DBD1079B0093AEE6009B002600271D
:103DE0009845EAE80267D1D1F4E706D1009B0CAA16
:103DF000013B52F82350ED1514E700224B4B18F00D
:103E0000F9FE002840F08281054671E70CA9029571
:103E100051F820300499CDF81C80183902460090E2
:103E200004916BB900F18043013B0CA800EB8303C4
:103E300053F80409013A18390028F9D00092049186
:103E4000049A3949002000F00FFF009B002B044624
:103E50000D46C0F20382DA0070A901EB020B049256
:103E60000CAA02EB8306DFF8C8900BF108070436B2
:103E70004FF0000856F8040D18F0D0FB22462B46F0
:103E800018F032FC4B4667E90201424620462946BB
:103E900018F02AFC0CAB9E4204460D46EAD10DF503
:103EA000907ACDF80CA0DDF814A04FF00009BAF11B
:103EB000000FC0F23D81DFF87C805D4618A1D1E99A
:103EC000000100260027002403E04C4510DCF8E840
:103ED0000201F5E8022318F007FC02460B463046C3
:103EE000394618F04FFA0134A24506460F46ECDA7F
:103EF000039B03EBC903ABF1080BC3E900676EAB8F
:103F00005B4509F10109D2D1A29BDDF80CA0032B7E
:103F100000F28B80DFE813F0D100900090001000D9
:103F200000000040FB21F93F0000F03F0000E03FAF
:103F30000000703EE8040308009B002B40F3A481BE
:103F4000049B0AEB0308D8E90067D34658E9029AB4
:103F500032463B464846514618F014FA04460D4690
:103F600002460B464846514618F00AFA32463B468E
:103F700018F008FAC8E9000168E90245C345264679
:103F80002F46E3D1009B012BDA4640F37D81049B51
:103F90005B44D3E90067984699460DF5947B59E94F
:103FA00002343246184621463B46CDE9000118F05E
:103FB000E9F904460D4602460B46DDE9000118F01A
:103FC000DFF932463B4618F0DDF9C9E9000169E93D
:103FD0000245CB4526462F46E1D1002308F10808CB
:103FE0001D464CAC1846294678E9022318F0CAF958
:103FF000444503460D46F5D1029A002A00F020817F
:10400000DAF80440DAF80C20069FDAF80010DAF843
:1040100008003B6105F1004504F1004402F1004253
:104020007D617C60FA603960B860079B03F007002F
:104030000DF5197DBDE8F08F049C0026083454442A
:1040400033463046194674E9022318F09BF954456B
:1040500006460B46F5D1029A30461946002A00F072
:10406000DA80069803F10044324644600660DAE9DB
:10407000000118F085F90B460099002902460EDD73
:10408000012410461946FAE9022318F07BF90B4681
:1040900000990134A1420246F3DA029909B103F111
:1040A00000431946069B1046C3E90201079B03F033
:1040B00007000DF5197DBDE8F08F049C002208343F
:1040C000544413461046194674E9022318F05AF96D
:1040D000A24502460B46F5D1029909B103F100430E
:1040E0001946069B1046C3E90001079B03F0070031
:1040F0000DF5197DBDE8F08F00260027EAE902677B
:10410000DA4509F108097FF4E4AC02E5009B002BD5
:1041100008F10108C8BF02253FF78CAD32463B4687
:104120000020634918F02CF9022506460F46DFE50A
:1041300000260027DCE6049B002B26DD0024049BE0
:10414000012B3FF4A8AD022B09D1009B5A1E0CABEA
:104150000CA953F82230C3F3150341F82230022D85
:104160007FF4C6AD32463B460020514918F008F9AD
:1041700006460F46002C3FF4BBADABE5009901337A
:10418000994278D1049B002BD9DC022D7FF4B0AD8D
:1041900032463B460020464918F0F2F806460F46E4
:1041A000A6E50123D1E53946049F02957A423046BF
:1041B000CDF81C8000F058FD00223E4B04460D4611
:1041C00018F018FD002862D000223B4B20462946FB
:1041D00018F08AFA18F038FD064618F01FFA002287
:1041E000344B18F081FA02460B462046294618F057
:1041F000C7F818F029FD00990B4601331A460093C1
:104200003B46183304930B460CA941F82300134690
:1042100041F8236014E6069B3246C3E900010B46D1
:10422000DAE9000118F0ACF80B46009900290246C3
:104230003FF726AF1946069B1046C3E9020135E752
:1042400018462946DAE90023DAE90245069FC7E95C
:104250000401C7E90023C7E90245E6E6A29B032B58
:104260003FF6E3AEDFE803F0211C1C0E009B012BA0
:1042700088DD0CAA012352F8044F002C3FF47EAFD6
:10428000581CDDE40DF5907A00231D46B4E629465E
:10429000204618F0D9FC009A0CA941F82200CFE57D
:1042A000002633460DF5907AD5E60022134613E733
:1042B0000000F03F000070410000703E0000000070
:1042C0002DE9F04F21F00046B6F1795F85B00C463C
:1042D00090469946054604DA18F0B6FC002800F02E
:1042E00085802A4623462846214618F0FDF90646D1
:1042F0000F4602460B462846214618F0F5F93EA324
:10430000D3E9002382468B463046394618F0ECF953
:104310003BA3D3E9002318F033F832463B4618F0AC
:10432000E3F939A3D3E9002318F02CF832463B46D1
:1043300018F0DAF936A3D3E9002318F021F8324651
:104340003B4618F0D1F934A3D3E9002318F01AF84A
:104350000E9BCDE900019BB30022334B40464946FA
:1043600018F0C2F9DDE90023CDE9020150465946B3
:1043700018F0BAF902460B46DDE9020118F000F820
:1043800032463B4618F0B0F942464B4617F0F8FF6C
:1043900023A3D3E9002306460F465046594618F09A
:1043A000A3F902460B463046394617F0EBFF0246AA
:1043B0000B462846214617F0E3FF05B0BDE8F08F15
:1043C00002460B463046394618F08EF914A3D3E95D
:1043D000002317F0D5FF52465B4618F085F92A46B0
:1043E000234617F0CFFF05B0BDE8F08F28462146E1
:1043F00005B0BDE8F08F00BF7CD5CF5A3AD9E53D76
:10440000EB9C2B8AE6E55A3E7DFEB157E31DC73E85
:10441000D561C119A0012A3FA6F810111111813FE1
:10442000495555555555C53F0000E03F0000000077
:104430002DE9F04FDA4C21F00046A64287B08A46BB
:1044400089461746984683461ADC18F0FDFBA8BB40
:104450005B461E43109B0133334300F0A981109B40
:10446000012B00F0B9815A4653460020CD4918F07F
:1044700065FA04460D462046294607B0BDE8F08F90
:10448000C94B9E421ADD0029C0F29F815A4653460D
:10449000A5A1D1E9000117F073FF3A46434604464F
:1044A0000D46A3A1D1E9000117F06AFF22462B4671
:1044B00017F068FF002783468A46B8465A46534697
:1044C0005846514618F010F903460C46CDE9003421
:1044D00002460B4618F008F9DDE9002304460D46B4
:1044E0005846514618F000F993A3D3E90023CDE9CB
:1044F00002012046294618F0F7F891A3D3E90023DA
:1045000017F040FF22462B4618F0EEF88EA3D3E9B1
:10451000002317F037FF22462B4618F0E5F88CA34E
:10452000D3E9002317F02EFF22462B4618F0DCF8C3
:1045300089A3D3E9002317F025FF22462B4618F064
:10454000D3F887A3D3E9002317F01CFFDDE900238C
:1045500018F0CAF884A3D3E90023CDE9040120466A
:10456000294618F0C1F882A3D3E9002317F00AFF07
:1045700022462B4618F0B8F87FA3D3E9002317F0A2
:1045800001FF22462B4618F0AFF87DA3D3E90023A4
:1045900017F0F8FE22462B4618F0A6F87AA3D3E9C6
:1045A000002317F0EFFE22462B4618F09DF878A363
:1045B000D3E9002317F0E6FE02460B46DDE90401CD
:1045C00017F0E0FEDDE9022318F08EF83A46434684
:1045D00017F0D8FEDDE9002318F086F802460B46F6
:1045E0003846414617F0CEFE6BA3D3E900230446BC
:1045F0000D46DDE9020118F077F822462B4617F048
:10460000C1FE0B46024651465846CDE9002317F03D
:10461000B9FE654B9E4204460D463EDC109B012BC5
:1046200036D002460B4600205E4918F087F9002478
:104630000F4606465A4653462046294617F0A0FE26
:10464000A04602460B46DDE9000117F099FE4246FE
:104650003B4618F049F8A94604460D4642463B46FB
:104660004046494618F040F80022504B17F08AFEA9
:1046700002460B462046294617F084FE32463B464A
:1046800018F032F842463B4617F07CFE04460D46D1
:104690002046294607B0BDE8F08F109817F0BEFFFE
:1046A000224606460F462B462046294618F01CF89F
:1046B0003246CDE902013B462046294617F062FE0C
:1046C00002460B46DDE9020118F038F9DDE9002366
:1046D00017F056FE02460B465846514617F050FE5C
:1046E00002460B4617F04EFE02460B463046394650
:1046F00017F046FE04464FEAA97000F00200C0F130
:1047000001000D4617F08AFF02460B462046294657
:1047100017F0EAFF04460D462046294607B0BDE8DB
:10472000F08F00BFAFF30080182D4454FB21E93F08
:10473000075C143326A6813CD47ABF74702AFB3EF2
:10474000E9A7F0320FB8123F68108D1AF726303FF4
:104750001583E0FEC8DB573F93846EE9E326823F72
:10476000FE41B31BBAA1AB3F735360DBCB75F3BE05
:10477000A69237A0887E143F0165F2F2D844433FE9
:10478000280356C9226D6D3F37D60684F464963FE0
:104790007AFE10111111C13F635555555555D53F3E
:1047A000FFFF2F3E0000F0BF2794E53F0000F03FE1
:1047B0005846514619F008F802460B4600200849B1
:1047C00018F0BCF804460D4662E701F1004308F119
:1047D000004883469A4659E65C46554658E700BF6E
:1047E0000000F03F000000002DE9F04FD24A21F018
:1047F0000043934285B00C460E4605462DD9CF4A5C
:1048000093421AD8002E80F21681B5A3D3E9002373
:104810002846214617F0B6FD0022002318F0D6F9ED
:10482000C0B9B1A3D3E900232846214617F05CFFA5
:1048300002460B460020C24908E1C24A934240F2B8
:10484000D0800346C1F31302134340F0F6810029E0
:1048500080F2C4800020BC49C0E0BC4A934200F210
:104860002981BB4A934240F2DE800023019300225B
:10487000B84B2846214617F037FF06460F4602463A
:104880000B462846214617F02FFF99A3D3E90023B2
:1048900082468B4617F028FF97A3D3E9002317F031
:1048A00071FD52465B4617F01FFF95A3D3E9002325
:1048B00017F066FD52465B4617F016FF92A3D3E948
:1048C000002317F05FFD52465B4617F00DFF90A3E3
:1048D000D3E9002317F054FD52465B4617F004FF5E
:1048E00000229D4B17F04EFD8046894602460B463E
:1048F0003046394617F0F8FE02460B46002097492D
:1049000017F03EFD064602460B460F464046494616
:1049100017F036FD3246804689463B4628462146FA
:1049200017F0E2FE02460B4600208D4917F028FDE5
:1049300002460B464046494618F000F852465B4690
:1049400017F0D2FE019E02460B46002E38D0DDE95C
:10495000026732463B4617F013FD2A46234617F0FE
:10496000C3FE32463B4617F00BFD5B46524617F03E
:1049700007FD019B013306460F4600F00F81019BA6
:10498000012B00F0F180019B0133392B39D8019BB9
:10499000132B40F31281019FC7F57F760336002267
:1049A000330517F0EFFC02460B462846214617F068
:1049B000E7FC0022684B17F0E5FC01EB07510DE026
:1049C0002846214617F090FE52465B4617F0D8FC69
:1049D00002460B462846214617F0D2FC05B0BDE83A
:1049E000F08F4DA3D3E9002318F00EF900283FF40F
:1049F00009AF4BA3D3E900231046194617F074FE04
:104A0000ECE72A46234617F0BBFC02460B46002083
:104A1000514917F0B5FC019A4F4B01EB02510022AE
:104A200017F0AEFCDAE73EA3D3E9002317F0AAFCA7
:104A300002460B46CAE72CA3D3E9002328462146A9
:104A400017F052FE0B4643490246002017F09AFC2D
:104A500018F0FAF8019017F0E1FD33A3D3E9002331
:104A600006460F4617F040FE02460B4628462146F2
:104A700017F086FC2EA3D3E90023804689463046F2
:104A8000394617F031FE06460F4632463B46404651
:104A9000494617F075FC02460B4605460C46404653
:104AA000494617F06DFC32463B4617F069FCCDE9EC
:104AB0000201DCE62B4A934200F2978000291AA3F8
:104AC000D3E90023C0F2AE8017F05AFC01238046E0
:104AD0008946019316A7D7E90067D6E7AFF30080B0
:104AE00059F3F8C21F6EA501FE822B654715F73FEB
:104AF0002DC3096EB7FD8ABE3952E686CACFD03EB5
:104B0000B7DBAA9E19CE143F8555FE19A0015A3F66
:104B1000F41011111111A13FEF39FAFE422E864017
:104B20009C7500883CE4377E0000E0FE422EE63FA4
:104B3000763C7935EF39EA3D79684340412E86402D
:104B40000000E0BFFFFFEF7F0000F0BF422ED63F26
:104B5000FFFF8F3C0000E03F0000F03F00000840F6
:104B600000001840B1A2F03F2846214600223A4BEF
:104B700018F02CF8002846D0284621460022374B52
:104B800017F000FC02460B463046394617F0F8FB9A
:104B900000224FF0404317F0A7FD1FE732463B4687
:104BA0002846214617F0ECFB00222C4B17F09CFD09
:104BB00000222A4B17F0E4FB10E7019E4FF4001E81
:104BC0004EFA06FE2A462346CEF17F5717F0D8FB51
:104BD000002607F5401702460B463046394617F0C7
:104BE000CFFB019E01EB0651F8E617A3D3E90023A2
:104BF00017F07AFD002C02460B464FF00000FFF63E
:104C00001AAE164922E732463B462846214617F09F
:104C1000B7FB02460B4617F0B5FB0022104B17F00E
:104C2000B1FBDBE617F0AEFB4FF0FF338046894661
:104C3000019307A7D7E9006727E702460B4617F05D
:104C4000A1FBCBE6AFF30080FE822B654715F73F53
:104C5000763C7935EF39EABD0000D0BF0000E03F77
:104C60000000F03F00000000F8B5C1F30A5604460A
:104C70000D460B4617460EBB21F000430343864604
:104C800025D00022344B17F02FFD344A97420446BA
:104C90000D460B462ADBC1F30A56363E3E4440F22F
:104CA000FE72964228DC002E12DD23F0FF4323F42F
:104CB000E00343EA065520462946F8BD40F2FF725C
:104CC0009642EBD102460B4617F05CFBF8BDF8BDEF
:104CD00016F1350F1DDA4CF250339F4222462B4617
:104CE00025DC19A1D1E900011AF004FE16A3D3E9CD
:104CF000002317F0F9FCF8BD22462B4614A1D1E998
:104D000000011AF0F7FD12A3D3E9002317F0ECFC21
:104D1000F8BD23F0FF4323F4E003363643EA06559B
:104D20002046294600220E4B17F0DEFCF8BD08A1F4
:104D3000D1E900011AF0DEFD05A3D3E9002317F045
:104D4000D3FCF8BDAFF3008059F3F8C21F6EA50184
:104D50009C7500883CE4377E00005043B03CFFFF68
:104D60000000903C10B5054C237833B9044B13B1C7
:104D70000448AFF300800123237010BD000400201D
:104D800000000000EC2B03080C4B43B10C480D490C
:104D900010B5AFF300800C48036823B910BD0A4872
:104DA000036833B97047094B002BF7D0BDE81040BA
:104DB0001847064B002BF5D0184700BF0000000035
:104DC000EC2B030804040020B803002000000000BE
:104DD00070B500F0C1F958B304460A25236820468F
:104DE000DB6A984720460BF0A1F920B905200AF0AC
:104DF000EFFC013DF2D120460BF088F90646204633
:104E00000BF094F9054620460BF0A0F92A4603461C
:104E10003146044607480AF02BF9304601F00AF9FA
:104E2000284601F007F92046BDE8704001F002B9BC
:104E300070BD00BF3005030870B504460E4600F093
:104E40008BF988B10368DB6A05469847082C0CD0BB
:104E5000A4F10903012B14D93246214610230D2059
:104E6000BDE8704003F080BE70BD2B6828465B6AC9
:104E700098470228F0DC2B6828461B6A04219847D3
:104E8000EAE72B6828465B6A98470528E4DC2B682C
:104E900028461B6A08219847DEE700BFF8B500F0F6
:104EA0005BF9044658B30BF031F918F01FF80746C8
:104EB00020460BF03BF918F019F8064620460BF097
:104EC00045F918F013F839460546384618F062F8E7
:104ED00031460446304618F05DF80146204617F08A
:104EE00051FF29460446284618F054F8014620464A
:104EF00017F048FF19F01EFB18F012FAF8BDF8BDC4
:104F000010B5044600F028F928B1032C03D8DFE8D7
:104F100004F0080C1004002010BDBDE81040FFF79D
:104F2000BDBFBDE810400BF0F1B8BDE810400BF07C
:104F3000FDB8BDE810400BF009B900BF10B504463C
:104F400000F00AF930B13CB1012C03D1BDE81040AA
:104F5000FBF732BA002010BDBDE81040FBF714BAD1
:104F600010B5044600F0F8F828B1036821461B6A22
:104F7000BDE81040184710BD0048704716FCFFFF01
:104F8000704700BF10B5034B036004460AF0B0FE43
:104F9000204610BDC810030810B5054B0360044639
:104FA0000AF0A6FE20461AF0CAFD204610BD00BF3A
:104FB000C81003082DE9F043614E346883B01CB17A
:104FC000204603B0BDE8F0834FF0FF31012001F02F
:104FD0004DFC04F02BFC002800F0B0800C201AF0EF
:104FE000B0FD23462246032105460EF02DFA554812
:104FF000AC600AF03DF84FF0FF31032001F036FCC1
:1050000004F014FC4FF0FF310446022001F02EFCA6
:1050100004F00CFC002C76D0002874D00146204609
:1050200004F0AAF98046002800F08480322146204E
:1050300001F01CFC382807464CD0682833D03228B1
:105040000ED0A86810BB4FF0FF31032001F00EFC1A
:1050500004F0ECFB002869D05A2007F0C7FE1CE0E2
:105060004FF0FF31012001F001FC04F0DFFB81462D
:105070004C201AF066FD0523044601934A4600972A
:1050800041462B460CF052FAAC60204603689B6AFE
:105090009847A8680368DB6A98472C462046356025
:1050A00003B0BDE8F0834FF0FF31012001F0DEFBDB
:1050B00004F0BCFB814648201AF043FD052304465A
:1050C00001934A46009741462B460CF057FCAC60D2
:1050D0002046DBE74FF0FF31012001F0C7FB04F071
:1050E000A5FB814644201AF02CFD052304460193BC
:1050F0004A462B46009741460CF08AFB124BAC60A7
:1051000023602046C2E7114809F0B2FF4FF0FF319B
:10511000192001F0ABFB04F089FB4FF0FF3104468E
:10512000182001F0A3FB04F081FB77E7084809F0A1
:105130009FFFB2E7074809F09BFFAEE734683FE7FF
:105140001C040020EC050308580503088C0503081F
:10515000CC050308AC05030808B5FFF72BFF00B129
:10516000806808BD08B501F09DFCFBF7DDFEBDE8D9
:10517000084001F00BBA00BF08B501F093FCFBF743
:1051800043FFBDE8084001F001BA00BF08B501F0D7
:1051900089FC18F08FFBBDE8084001F0F7B900BFAB
:1051A00008B501F07FFC19F001F9BDE8084001F0F5
:1051B000EDB900BF08B501F075FCFBF7C5FEBDE811
:1051C000084001F0E3B900BF08B501F06BFC18F02E
:1051D000A3FDBDE8084001F0D9B900BF08B501F052
:1051E00061FCFBF701F9BDE8084001F0CFB900BF51
:1051F00008B501F057FC18F0E3FCBDE8084001F0E9
:10520000C5B900BF70B5049E96420C4628DB154612
:105210006BB1002A00EB020107DD2046A21811F84D
:10522000013D00F8013B9042F9D1002070BD042AF5
:105230000FD0022A02D110F0010306D001462A46FF
:10524000204606F09FFB002070BD02880A801846A9
:1052500070BD10F00303F1D102680A60184670BDFA
:105260000846002107F0EEFB4FF0FF3070BD00BF95
:105270000830704740B1002905DB4368994202DAE3
:105280000844007A70470020704700BF30B1002901
:1052900004DB43689942BCBF40180272704700BFEC
:1052A000002B23DB002921DB70B54668B1421ADCF4
:1052B0005568761A1446EA1AB242A8BF3246002A46
:1052C00011DB84420D4607D0083408300844E11849
:1052D00006F058FB002070BD0834E11860191AF080
:1052E0006AFC002070BD4FF0FF3070BD4FF0FF3002
:1052F000704700BF4068704710B4141E0FDB42684F
:1053000094420CDC33EA230328BF1346121B0830F7
:105310009A422044A8BF1A4610BC07F093BB10BCA9
:10532000704700BF43688B4210B400F10804184670
:10533000A8BF084632EA220128BF19461B1A994223
:105340002044A8BF194610BC00F054BE002BBCBFBF
:1053500043689B1A002A70B50E4620DB44689918F2
:10536000A1421CDC8A421ADCCBB136F0004116D0D7
:1053700059428E4214DDB34212DD0830002E00EB9C
:10538000020515DB9C1B2246A91928461AF013FCBE
:10539000324628190021BDE8704007F053BB70BDAC
:1053A000002211464FF0FF33BDE87040FFF7A4BF65
:1053B00074429A19294628191AF0FDFB22462846FC
:1053C0000021BDE8704007F03DBB00BF0346083038
:1053D000596800F08FBD00BF70B5044600206168B9
:1053E000490000F005FD6668002E11DD094D04F14D
:1053F000080100EB4606034611F8012B141102F0D8
:105400000F022C5DAA5C9C71DA7102339E42F3D1CB
:1054100070BD00BFFC050308002BBCBF43689B1A8E
:10542000002A2FDB70B445689C18AC4229DCA242EC
:1054300027DC33B331F0004423D00029B8BF01EB9F
:10544000032191FBF3F603FB1616002E00F1080072
:10545000B8BFF61802441644B242134411D0304685
:1054600004E0B24208460ED090420AD001461478B9
:1054700011F8015B02F8015B8B420470F1D13046F8
:10548000F2E770BC70470E46EEE700BF00B583B090
:105490004FF0FF3300930023FFF702FF03B05DF8E6
:1054A00004FB00BF0146002000F0A4BD38B5002178
:1054B000054600F04DFD0146002000F09BFD04462E
:1054C00000F10801284600F043FD204638BD00BF2A
:1054D00030B5013A83B004460D460F2A16D8DFE8EE
:1054E00002F01717838D94172E08081F424D5C3663
:1054F0007462184601F066FB012DADF8000005DD71
:105500009DF800209DF801302370627003B030BD1B
:10551000184601F057FB002DF8DD207003B030BDB8
:10552000184601F04FFB032D0090EFDD6A46231D66
:1055300012F8011B03F8011D9C42F9D1E6E7184659
:1055400001F040FB002DC0B2E0DD2070E6E7184618
:1055500001F0A8FA072DCDE90001D7DD6B4603CB9A
:1055600020606160D2E7184601F0C4FA032DCDDD5A
:10557000A3070CBF2060206003B030BD184601F0C7
:10558000B9FA032D0090C1DD6A46231D12F8011BF4
:1055900003F8011D9C42F9D1B8E7184601F0A4FBBD
:1055A000032DE5DCB2E7184601F07CFA072DCDE9C2
:1055B0000001ABDD0DF1FF3204F1080312F8011F09
:1055C00003F8011DA342F9D1A0E7184601F08CFBB6
:1055D000032D00909ADD6A46231D12F8011B03F883
:1055E000011DA342F9D191E7184601F0EBFA012D14
:1055F0008CDDE20754BF2080208087E7184601F049
:10560000E1FA012D82DD80B2F3E7184601F0DAFA03
:10561000032DADDC7AE700BF30B4141E07DB45680C
:1056200008300A462044291B30BCFFF751BF30BC6C
:10563000704700BF00B5013A85B00F2A00F288809C
:10564000DFE802F01623303D4A56595C5F6265710F
:10565000748083080091012308220DEB0201FFF7FB
:10566000D1FDDDE9020100F091FF05B05DF804FB1A
:1056700000910023012202A9FFF7C4FD9DF9080053
:1056800001F090F805B05DF804FB009100230122C1
:1056900002A9FFF7B7FD9DF8080001F083F805B0F7
:1056A0005DF804FB00910023022202A9FFF7AAFD86
:1056B000BDF9080001F076F805B05DF804FB009133
:1056C0000023022202A9FFF79DFDBDF8080001F0AA
:1056D00069F805B05DF804FB00910023042202A9DB
:1056E000FFF790FD029801F05DF805B05DF804FB4E
:1056F00001230091BEE701230091C8E70091012337
:10570000D2E700910123DCE700910123E6E7009155
:105710000023042202A9FFF775FD029801F04CF85E
:1057200005B05DF804FB00910123F2E7009100232E
:10573000042202A9FFF766FD029801F02BF805B0DC
:105740005DF804FB0091002386E700910123EFE759
:1057500000208AE7131E08DB10B4446808300A46AC
:105760001844E11A10BCFFF765BF002001F01AB819
:1057700003F04EB903F0F8B910F026BEC11703F0DC
:10578000A1B800BF03F0B2B803F0C2B803F03EB94D
:1057900081B138B50B680C4608461B6A98472368E8
:1057A00005465B6A2046984701462846BDE83840D2
:1057B00004F02CBB704700BF01F08CBE012002F04A
:1057C0002BB800BF08B5022002F026F840F2933053
:1057D000BDE8084007F00ABB00207047002A2DE909
:1057E000F04340F3BB8000242546ED27DFF8CCE1F1
:1057F00009E07F2B04F1010415D8013508B10370CD
:105800000130A24221DD0B5D1E06F2D503F0E00659
:10581000C02E1DD003F0F006E02E33D003F0F806C2
:10582000F02E51D0013402350028EAD04FEA931C03
:1058300006466CF03F0C06F802CB03F03F0363F022
:105840007F03A24243703046DDDC2846BDE8F0838A
:10585000661CB242DEDD01EB040C9CF801C00CF0CA
:10586000C008B8F1800FD5D14FEA83180CF03F0C77
:1058700008F4F86848EA0C0CBCF17F0F70DD634651
:105880000234D0E7A61CB242C8DD0E1996F801C05A
:105890000CF0C008B8F1800FC0D196F8028008F073
:1058A000C006802EBAD11E0308F03F084FEA8C1CB8
:1058B000B6B20CF47C6C46EA080646EA0C06B6F56D
:1058C000006FAFDB033430E0E61CB242AADD0E19F4
:1058D00096F801C00CF0C008B8F1800FA2D196F87C
:1058E000028008F0C009B9F1800F9BD196F80390AF
:1058F00009F0C006802E95D19E0409F03F094FEAB9
:105900000C3C06F4E0160CF47C3C4FEA881846EA9E
:10591000090646EA0C0608F47C6846EA0806A6F57D
:10592000803CF4453FF67EAF0434B6F5803F1DD28F
:10593000033500283FF465AF4FEA163CC6F38513E4
:1059400006F03F066CF01F0C63F07F0366F07F06E5
:1059500080F800C043708670033052E7002574E77A
:105960000235344600287FF461AF4CE7A6F5803657
:10597000B30A063503F5584300283FF442AFC6F397
:10598000090606F55C46C6F38518C3F3851C06F0C8
:105990003F0603F03F0368F07F0866F07F066CF077
:1059A0007F0C63F07F030770C77080F80480467136
:1059B00080F801C08370063023E700BFFFFF0F00AF
:1059C0000378024618461B0600D4704700F0E00337
:1059D000C02B10D000F0F003E02B00D070475378BC
:1059E000927800039B0103F47C6380B2184302F0B9
:1059F0003F03184370475378800103F03F0300F4DE
:105A0000F8601843704700BF704700BF80880A30B5
:105A100080107047063070478088704783888B42BB
:105A200026BF063040180020704700BF80880A302B
:105A300080107047704700BF0630704780887047FD
:105A40008188E1B130B4841D0020034602E00133B7
:105A5000994210DDE25C150600F10100F7D502F075
:105A6000E005C02D02F0F00207D0E02A08BF0233A3
:105A700001339942EEDC30BC70470133E7E708465A
:105A8000704700BF70B400228688851D134602E06F
:105A900001339E4213DB0132914205EB0300EC5CC3
:105AA0000EDB2006F4D504F0E000C02804F0F0047A
:105AB00008D0E02C08BF023301339E42EBDA00200D
:105AC00070BC70470133E3E7C38880681B0900EBB3
:105AD0004300704780887047C08870470320704734
