:1040000000000320791501007515010051D800004A
:1040100075150100751501007515010000000000FF
:104020000000000000000000000000007515010005
:1040300075150100000000007515010075150100DF
:104040007515010075150100751501007515010044
:104050007515010075150100751501007515010034
:104060007515010075150100751501007515010024
:1040700099B90100A1B90100A9B90100B1B90100C4
:10408000B9B90100C1B90100C9B90100D1B9010034
:10409000D9B90100E1B90100E9B90100F1B90100A4
:1040A000F9B9010001BA010009BA010011BA010011
:1040B00075150100751501007515010039B4010071
:1040C0003DB4010041B4010045B4010049B4010010
:1040D00075150100751501007515010075150100B4
:1040E00075150100751501007515010075150100A4
:1040F00000000000751501007DAF010079AF0100DF
:1041000075AF010069AF010095AF010091AF0100EB
:104110008DAF010081AF0100ADAF0100A9AF01007B
:10412000A5AF010099AF0100C5AF0100C1AF01000B
:10413000BDAF0100B1AF0100DDAF0100D9AF01009B
:10414000D5AF0100C9AF0100F5AF0100F1AF01002B
:10415000EDAF0100E1AF0100000000000000000031
:10416000000000000000000000000000000000004F
:10417000000000000000000000000000000000003F
:10418000F9830100FD830100F5830100F183010043
:10419000000000007515010075150100751501007E
:1041A00075150100751501007515010075150100E3
:1041B00075150100751501007515010075150100D3
:1041C00075150100751501007515010075150100C3
:1041D00075150100751501007515010075150100B3
:1041E00075150100751501007515010089A50100FF
:1041F00091A5010099A50100A1A50100A9A50100B3
:10420000B1A50100000000000000000075150100CC
:104210007515010075150100751501007515010072
:104220007515010075150100751501007515010062
:104230007515010075150100751501007515010052
:104240007515010075150100751501007515010042
:104250007515010075150100751501007515010032
:10426000000000007CB0EE877CB0EE87FF00FF000E
:10427000FF00FF00FF00FF00FF00FF00FF00FF0046
:10428000FF00FF00FF00FF00FF00FF00FF00FF0036
:10429000FF00FF00FF00FF00FF00FF000000000024
:1042A0002DE9F04F0378202B83B00446894603D1D3
:1042B00014F8013F202BFBD02B2B08BF013494F8BE
:1042C00000E0BEF12D0F00F086809FED577BBEF120
:1042D000300F8DED007B00F08A80BEF1000F00F002
:1042E0009D80002600274FF0000ADFF84CB14FF008
:1042F00000081CE017F04AFE06460F46284617F055
:10430000DFFD32463B4617F08FFC524606460F460D
:104310005B46DDE90001B8F1000F03D017F060FF44
:10432000CDE9000114F801EFBEF1000F14D0AEF199
:104330003005092D52465B4630463946DAD9B8F188
:10434000000F18D1BEF12E0F15D114F801EF4FF068
:104350000108BEF1000FEAD132463B46DDE900011B
:1043600017F014FE06460F46C9F80040304639469D
:1043700003B0BDE8F08F0EF0DF0EBEF1450F08D0A0
:104380002378202B03D114F8013F202BFBD0002BE6
:1043900041D1DDE900233046394617F0F7FD237897
:1043A00006460F46002BDFD04946601C0A221AF051
:1043B00039FC21490246002018F048F902460B4614
:1043C0003046394617F0E2FD06460F46304639467C
:1043D00003B0BDE8F08F94F801E09FED157BBEF1CE
:1043E000300F8DED007B04F101047FF476AF63782C
:1043F00043F02003782B7FF474AF10224946204607
:104400001AF010FC17F05CFDDDE9002317F0BEFD8B
:1044100006460F46AAE70026084FA7E70026002712
:104420009AE700BFAFF30080000000000000F03FFB
:10443000000000000000F0BF000024400000F87FF2
:104440002DE9F04F002383B01446002206460F46A4
:1044500018F00EF8002876D10022002330463946A5
:1044600017F0FCFF30B1302200232270637003B0DC
:10447000BDE8F08F3046394618F0D4FE18F036F813
:104480004CA3D3E90023054601903946304618F085
:1044900003F800285ED1019A4549002018F0D6F8AB
:1044A00002460B463046394617F09AFE012506466D
:1044B0000F46DFF8FC904FF0000A4FF00008394635
:1044C000304618F013F800F130032370834617F0DC
:1044D000F7FC02460B463046394617F0A3FB4B4625
:1044E000424617F053FD013D04BF2E23637006467C
:1044F0000F4614BF01340234BAF1000F06D1BBF1EC
:10450000000F0CBFDA464FF0010AD8E70AF1010AA2
:10451000BAF1100FD3DD002DD1DC14F8013C302BA3
:1045200004F1FF3403D114F8013D302BFBD0019886
:104530002E2B08BF04F1FF34012827D1002363701C
:1045400003B0BDE8F08F07F100431F462D23237011
:10455000013481E714A3D3E900233046394617F02C
:1045600087FF002897D0002D18DD2A46002010492B
:1045700018F06CF80B4602463946304617F030FE0C
:104580000123013506460F46019392E76523A11CDE
:10459000637003B0BDE8F04F0EF008BC0125019533
:1045A00087E700BFAFF3008050EFE2D6E41A4B4438
:1045B000000024408DEDB5A0F7C6B03E000000001D
:1045C00070B54FF0FF3005F03BFF04466FF07F40C1
:1045D00005F036FF0646204617F062FC00220C4B21
:1045E00017F0D4FC044630460D4617F059FC06A3DC
:1045F000D3E9002317F0F4FD02460B462046294676
:1046000017F012FB70BD00BF0000E0DFFFFF6F433B
:104610000000F03D0000000008B50FF0C5FEDFED22
:104620000C7A07EE100A67EE277A17EE900A17F059
:1046300059FC05A3D3E9002317F0D2FD17F056FF6C
:1046400008BD00BFAFF30080EA2E4454FB2119409F
:104650000000B4430000000008B50FF0B9FEDFED24
:104660000C7A07EE100A67EE277A17EE900A17F019
:1046700039FC05A3D3E9002317F0B2FD17F036FF8C
:1046800008BD00BFAFF30080EA2E4454FB2119405F
:104690000000B443000000002DE9F04F046985B02C
:1046A000E3699B07FCD12368C3F3400BBBF1000F08
:1046B00040F0AF80B0F80CA015468046BAF1000F6C
:1046C00023D0BAF1010F62D0BAF1020F40F0A480FA
:1046D0005500E1685448C5F53B438033B3FBF5F31F
:1046E0001A0421F47F0102F47F020A43E260E268C7
:1046F0005B00A0FB03135B0822F07F4242EA0363E6
:104700005846E36005B0BDE8F08FE2684BF6803BA9
:1047100005EB850022F0FF03ABEB4000019317F09F
:10472000BFFB0646B8F80E000F4617F0C9FB3CA3C6
:10473000D3E9002317F02AFC80460BFB05F08946DD
:1047400017F0AEFB02460B464046494617F01EFCEA
:1047500002460B463046394617F064FA06466800B2
:104760000F4617F09DFB02460B463046394617F0C0
:1047700037FD17F0E3FE019BC0B21843E060E36829
:10478000504623F47F43E36005B0BDE8F08FE26854
:104790004BF6803A05EB850022F0FF03AAEB4000C0
:1047A000019317F07DFBCDE90201B8F80E0017F078
:1047B00087FB1BA3D3E9002317F0E8FB06460AFB9F
:1047C00005F00F4617F06CFB02460B4630463946A3
:1047D00017F0DCFB02460B46DDE9020117F022FA76
:1047E000064668000F4617F05BFB02460B46304654
:1047F000394617F0F5FC17F0A1FE019AC3B2134336
:10480000E360E368584623F47F43E36005B0BDE806
:10481000F08F6FF0100075E76FF00C0072E700BFCB
:1048200095D626E80B2E113EABAAAAAA00000000DE
:104830004F4A21F0004393422DE970430D46044650
:104840004FDC4C4A93420E460FDC45A3D3E90023CC
:1048500017F0EAF90022484B17F028FE002856D03E
:104860002B4620461946BDE87083444A934242DCF9
:10487000B3F1804F4BDD18F0DFF8224680468946C1
:104880002B462046294617F081FB00223A4B17F0B1
:10489000CBF919F0EFF802460B464046494617F0AF
:1048A000C3F902460B460020334917F099FC4246F3
:1048B00004460D464B464046494617F0B5F90B46AF
:1048C00002462946204617F0AFF901F0FDFE0446E6
:1048D0000B46002E0BDC03F1004320461946BDE8D1
:1048E00070830B46024617F09FF904460B4620469C
:1048F0001946BDE8708318F09FF801F0E5FE1AA391
:10490000D3E9002317F090F904460B46E1E722466D
:104910002B462046294617F039FB8046894620461B
:10492000294618F089F800220446134B0D464046EC
:10493000494617F079F919F09DF800220E4B17F04F
:1049400073F902460B464046494617F049FC224699
:104950002B4617F069F900F0D3FA04460B46B8E786
:104960009C7500883CE4377EEF39FAFE422EE63F24
:10497000FFFFEF7FFFFF2F3E0000F03F0000B04140
:104980002DE9F84FC24B21F000469E420D468A4663
:10499000044610DDBF4B9E4200F3B58000F0B080AE
:1049A000BD4BBE49BE4CBAF1000FD8BF0B462046E6
:1049B0001946BDE8F88FBB4B9E4200F3C180A3F1BE
:1049C000DE739E4240F3AB804FF0FF3B22462B4606
:1049D0002046294617F0DAFA02460B4680468946F9
:1049E00017F0D4FA92A3D3E9002306460F4617F036
:1049F000CDFA91A3D3E9002317F016F932463B46CE
:104A000017F0C4FA8EA3D3E9002317F00DF932464C
:104A10003B4617F0BBFA8CA3D3E9002317F004F947
:104A200032463B4617F0B2FA89A3D3E9002317F0C8
:104A3000FBF832463B4617F0A9FA87A3D3E90023D7
:104A400017F0F2F842464B4617F0A0FA84A3D3E9D8
:104A50000023804689463046394617F097FA82A3EC
:104A6000D3E9002317F0DEF832463B4617F08EFA02
:104A70007FA3D3E9002317F0D5F832463B4617F061
:104A800085FA7DA3D3E9002317F0CCF832463B46E4
:104A900017F07CFA7AA3D3E9002317F0C3F8324663
:104AA0003B4617F073FABBF1FF3F02460B466ED050
:104AB0004046494617F0B8F822462B4617F066FAEA
:104AC000794E7A4B4FEACB0B5E449B44DBE90023E3
:104AD00017F0A8F822462B4617F0A4F80B4602461A
:104AE000D6E9000117F09EF8BAF1000F04460B4614
:104AF000BFF65DAF01F1004320461946BDE8F88FCF
:104B000000283FF44DAF22462B462046294617F099
:104B10008BF804460B4620461946BDE8F88F5AA389
:104B2000D3E9002317F080F80022614B17F0BEFC98
:104B300000283FF449AF2B4620461946BDE8F88FC0
:104B400017F07AFF5B4B9E4204460D4630DCA3F51E
:104B500050239E4255DC02460B4617F065F80022B2
:104B6000534B17F05FF8002206460F464FF0804384
:104B70002046294617F058F802460B46304639467B
:104B800017F02EFB4FF0000B04460D461EE7404683
:104B9000494617F049F822462B4617F0F7F90B461D
:104BA00002462946204617F03DF804460B46FEE62D
:104BB000414B9E421ADC0022404B17F033F8002292
:104BC00006460F463D4B2046294617F0DFF90022E6
:104BD000374B17F029F802460B463046394617F096
:104BE000FFFA4FF0020B04460D46EFE602460B4675
:104BF0000020334917F0F4FA4FF0030B04460D463A
:104C0000E4E600222A4B17F00DF8002206460F4674
:104C1000274B2046294617F007F802460B46304638
:104C2000394617F0DDFA4FF0010B04460D46CDE68C
:104C300011DA22E33AAD903FEB0D76244B7BA93F8E
:104C4000513DD0A0660DB13F6E204CC5CD45B73F5C
:104C5000FF8300922449C23F0D5555555555D53F08
:104C60002F6C6A2C44B4A2BF9AFDDE522DDEAD3FFC
:104C70006D9A74AFF2B0B33F711623FEC671BC3F9C
:104C8000C4EB98999999C93F9C7500883CE4377E9C
:104C9000FFFF0F440000F07FFB21F93FFB21F9BF2C
:104CA000182D4454FFFFDB3F90FB0100B0FB0100D7
:104CB0000000F03FFFFFF23FFF7F03400000F83F9E
:104CC0000000F0BF000000002DE9F047C1F30A59D1
:104CD000A9F2FF36132E0B460D46044607468846BA
:104CE000824622DC002E4FDB3D4A42FA06F901EAF9
:104CF000090202431ED038A3D3E9002316F094FF23
:104D00000022002317F0D2FB50B1002D04DD4FF438
:104D1000801343FA06F6B04428EA09054FF0000A6A
:104D2000544629462046BDE8F087332E06DDB6F509
:104D3000806F3DD019462046BDE8F087A9F213499F
:104D40004FF0FF3222FA09F910EA090FF2D022A33C
:104D5000D3E9002316F068FF0022002317F0A6FB1A
:104D60000028DDD0002D09DD142E2FD00123C6F13F
:104D7000340603FA06F6371928BF9844454627EA51
:104D8000090A54462946CDE713A3D3E9002316F0B8
:104D90004BFF0022002317F089FB0028C0D0002D14
:104DA0000FDB55EA040709D04FF0000A0D4DB7E7B5
:104DB00002460B4616F038FF0446BCE7BA463D46AD
:104DC000AEE74FF0000A4FF00045A9E705F10108F2
:104DD000D4E700BFAFF300809C7500883CE4377EC9
:104DE000FFFF0F000000F03FC1F30A522DE9F84326
:104DF000A2F2FF36132E0B460D46044688460746A0
:104E00001DDC002E40DB3C4A42FA06F901EA0902A9
:104E10000243864618D036A3D3E9002316F004FFD8
:104E20000022002317F042FB20B1002D42DB28EACC
:104E3000090500273C4629462046BDE8F883332E65
:104E400006DDB6F5806F2FD019462046BDE8F88301
:104E5000A2F213424FF0FF3929FA02F910EA090FC2
:104E6000F2D023A3D3E9002316F0DEFE00220023B4
:104E700017F01CFB0028DDD0002D21DB454627EA7A
:104E800009073C462946D7E719A3D3E9002316F0C2
:104E9000CBFE0022002317F009FB0028CAD0002D0A
:104EA00019DB00273D46C5E702460B4616F0BCFE5F
:104EB0000446CAE74FF4801343FA06F6B044B6E757
:104EC000142E10D00123C6F1340603FA06F6371962
:104ED00028BF9844D2E725F00042084B224318BF70
:104EE0001D460027A6E705F10108C7E7AFF30080DC
:104EF0009C7500883CE4377EFFFF0F000000F0BF88
:104F00002DE9F04FD64B994289B00E460F468246A6
:104F100013DCD44B21F000449C4218DD0022D24B1C
:104F200017F09CFA002879D0002200230020CF49F6
:104F300017F056F909B0BDE8F08FCD4B99422FDD3F
:104F40005246334616F070FE09B0BDE8F08FC94BEB
:104F50009C4270DDC84B1F449F427ED8504631466C
:104F60000022C64B16F060FE4FEA215BABF2FF3B1E
:104F7000BBF1000F04460D460F4640F3E081524658
:104F8000334616F04FFE02460B460020BB4916F092
:104F900049FE22462B4617F023F9CDE900010BE02C
:104FA000B74B9F42DADD00220023CDE900234FEA10
:104FB000275B5446ABF2FF3BB24BC7F313079F424C
:104FC00047F07F5500F3E78045F440152046294619
:104FD0000022AA4B16F026FE002204460D46AA4BDC
:104FE00016F0D4FF22462B4616F0D0FFA246CDE99C
:104FF00002012E4680468946002F3AD10022002326
:105000002046294617F02AFA002800F0CE80BBF18E
:10501000000F40F076810020014695E75246334666
:105020005046314616F0FEFD02460B4617F0D8F802
:1050300009B0BDE8F08F0022944B16F0F5FD002278
:10504000002317F033FA002800F0CC80904B9C42EC
:1050500000F3C8805046314676E700228A4B16F0AE
:1050600095FF5246334616F091FF4FF0000B8046F5
:10507000894600224FF080435046314616F0D4FD59
:1050800002460B465046314617F0AAF802460B4638
:10509000CDE9022316F07AFF5DA3D3E9002304468D
:1050A0000D4616F073FF5CA3D3E9002316F0BCFD98
:1050B00022462B4616F06AFF59A3D3E9002316F0C7
:1050C000B3FD22462B4616F061FF57A3D3E9002318
:1050D00016F0AAFD22462B4616F058FF54A3D3E93A
:1050E000002316F0A1FD22462B4616F04FFF52A3D7
:1050F000D3E9002316F098FD22462B4616F046FF12
:105100004FA3D3E9002316F08FFD22462B4616F05D
:105110003DFF04460D46BBF1000F00F0BB80584632
:1051200016F0CEFE48A3D3E90023CDE9040116F022
:105130002DFF4246CDE906014B462046294616F092
:1051400073FDDDE9022316F021FF41A3D3E900231B
:1051500004460D46DDE9040116F018FFDDE90023E1
:1051600016F062FD02460B462046294616F05CFD0D
:1051700002460B464046494616F054FD5246334619
:1051800016F050FD02460B46DDE9060116F04AFD19
:1051900009B0BDE8F08F45F40015C7F5801720462B
:1051A0002946BF100BF1010B12E72BA3D3E9002313
:1051B0002046294616F0EAFE02460B4600202F49FB
:1051C00016F030FDDDE9022316F0E0FE06460F463C
:1051D000BBF1000F6DD102460B462046294616F062
:1051E00021FDB1E6524633465046314616F0CEFE1A
:1051F0000022254B16F0CAFE02460B4650463146A9
:1052000016F010FD09B0BDE8F08F00BFAFF30080CD
:1052100044523EDF12F1C23F9FC678D0099AC33F85
:10522000DE03CB966446C73FAF788E1DC571CC3F79
:10523000599322942449D23F04FA97999999D93FD6
:10524000935555555555E53F0000E0FE422EE63F8B
:10525000763C7935EF39EA3D555555555555E53F7D
:105260007982DA3FFFFFEF3F0000F0BF000050C33C
:10527000FFFFEF7FFFFF1F3E3C412D400000F03F4E
:10528000FFFF3F439DA006000000E03F00005043A9
:10529000FFFF8F3C42464B4616F0C6FCDDE9022379
:1052A00016F074FE02460B464046494616F0BAFC1C
:1052B000A2E7584616F004FE27A3D3E9002382464E
:1052C0008B4616F063FE26A3D3E900238046894669
:1052D0005046594616F05AFEDDE9002316F0A4FCAC
:1052E00002460B463046394616F09CFC22462B46B9
:1052F00016F098FC02460B464046494616F092FCD2
:1053000022E6584616F0DCFD15A3D3E90023064635
:105310000F4616F03BFEDDE9002316F085FC0EA3D8
:10532000D3E9002304460D463046394616F02EFEDA
:1053300002460B462046294616F076FC04E600227B
:10534000094B16F06FFC02460B465046314616F0EC
:1053500069FC1EE6AFF300800000E0FE422EE63F4F
:10536000763C7935EF39EA3D0000F03F000000005F
:1053700008B517F0DBFE04A3D3E9002316F030FFD5
:1053800008BD00BFAFF30080EF39FAFE422EE63FC2
:105390002DE9F043DFF8B4808BB004460D4600F0F1
:1053A0006BFF98F90030013306460F462BD022469A
:1053B0002B462046294617F083F8814618BB204625
:1053C000294617F039FB1CA3D3E9002317F06EF828
:1053D000C8B11B4A98F90030CDF820900321CDE9DF
:1053E0000445CDE902458DE806008BB9154B4FF019
:1053F0006042CDE90623684619F080FA70B1089B37
:105400009BB9DDE90667304639460BB0BDE8F0834D
:105410000D490020022BCDE90601ECD119F0BEFBAD
:1054200022230360089B002BEBD019F0B7FB089BED
:105430000360E6E7AFF300807DF8B98FCE33864096
:105440001C100200FFFFEF470000F07F1602002053
:105450002DE9F043DFF8E4808BB004460D4600F000
:10546000BBFF98F90030013306460F4633D0204683
:10547000294619F03DFA70B329A3D3E90023204649
:10548000294617F013F8814650BB27A3D3E9002320
:105490002046294616F0ECFFE8B198F90030244A7E
:1054A000CDF82090042600200021022BCDE90445F0
:1054B000CDE9024500960192CDE9060129D0684662
:1054C00019F01CFA28B3089B1BB119F067FB089B65
:1054D0000360DDE90667304639460BB0BDE8F0836E
:1054E000134A98F90030019203210022CDE90445C6
:1054F000CDE90245009108922BB90E4B4FF0604266
:10550000CDE90623DBE70C490020022BCDE906019B
:10551000D5D119F043FB22230360D4E7AFF3008019
:10552000EF39FAFE422E864051302DD5104987C002
:1055300024100200FFFFEF470000F07F160200205A
:105540002DE9F84FC44E21F00043B3420C46054606
:105550000DDD03F1404303F58013034340F0B980B0
:10556000002940F3408100200021BDE8F88FBB4EA8
:10557000B34240F3A6800029C0F2788102460B4670
:105580000020B74916F04EFB0022B64B16F0FEFC89
:1055900004460D4618F06EFA95A3D3E90023894618
:1055A00080462946204616F0F1FC93A3D3E9002358
:1055B00016F03AFB22462B4616F0E8FC90A3D3E9FE
:1055C000002316F02FFB22462B4616F0DFFC8EA39D
:1055D000D3E9002316F028FB22462B4616F0D6FC12
:1055E0008BA3D3E9002316F01DFB22462B4616F0B1
:1055F000CDFC89A3D3E9002316F016FB22462B46E7
:1056000016F0C4FC86A3D3E9002382468B462046CD
:10561000294616F0BBFC84A3D3E9002316F002FB55
:1056200022462B4616F0B2FC81A3D3E9002316F0E4
:10563000FBFA22462B4616F0A9FC7FA3D3E90023F0
:1056400016F0F0FA22462B4616F0A0FC0022844BFE
:1056500016F0EAFA02460B465046594616F0C0FDCF
:1056600042464B4616F092FC002682468B46324656
:105670004B463046494616F089FC02460B4620460A
:10568000294616F0CFFA324604460D464B464046B0
:10569000494616F0C9FA02460B462046294616F03E
:1056A0009FFD02460B465046594616F0BDFA32465B
:1056B0004B4616F0B9FA02460B4616F0B5FABDE8AD
:1056C000F88F694A93420EDC5DA1D1E90001BDE883
:1056D000F88F02460B4616F0A5FA02460B4616F066
:1056E0007FFDBDE8F88F02460B4616F04FFC40A345
:1056F000D3E9002306460F4616F048FC3EA3D3E943
:10570000002316F091FA32463B4616F03FFC3CA3CC
:10571000D3E9002316F086FA32463B4616F036FCF3
:1057200039A3D3E9002316F07FFA32463B4616F040
:105730002DFC37A3D3E9002316F074FA32463B461A
:1057400016F024FC34A3D3E9002316F06DFA324698
:105750003B4616F01BFC32A3D3E900238046894662
:105760003046394616F012FC2FA3D3E9002316F079
:1057700059FA32463B4616F009FC2DA3D3E9002323
:1057800016F052FA32463B4616F000FC2AA3D3E943
:10579000002316F047FA32463B4616F0F7FB00228C
:1057A0002F4B16F041FA02460B464046494616F08A
:1057B00017FD2A46234616F0E9FB02460B4622A1B6
:1057C000D1E9000116F02EFA02460B462846214682
:1057D00016F028FA02460B4619A1D1E9000116F08D
:1057E00021FABDE8F88F1AA1D1E90001BDE8F88FD0
:1057F00009F7FD0DE13D023F88B20175E0EF493F39
:105800003B8F68B52882A43F5544880E55C1C93FD7
:105810007D6FEB0312D6D43F555555555555C53FB1
:1058200082922EB1C5B8B33F59018D1B6C06E63F7D
:10583000C88A599CE52A00404B2D8A1C273A034010
:10584000182D4454FB21F93F075C143326A6913CE4
:10585000182D4454FB210940FFFFEF3FFFFFDF3FBE
:105860000000F03F0000E03F0000603C00225C4B85
:1058700016F0DAF900225B4B16F088FB40A3D3E95F
:10588000002304460D4616F081FB3FA3D3E9002315
:1058900016F0CAF922462B4616F078FB3CA3D3E952
:1058A000002316F0BFF922462B4616F06FFB3AA3F1
:1058B000D3E9002316F0B8F922462B4616F066FB12
:1058C00037A3D3E9002316F0ADF922462B4616F094
:1058D0005DFB35A3D3E9002316F0A6F922462B463B
:1058E00016F054FB804689462046294618F0C2F837
:1058F0002FA3D3E9002306460F462046294616F07B
:1059000045FB2DA3D3E9002316F08CF922462B4644
:1059100016F03CFB2AA3D3E9002316F085F92246B2
:105920002B4616F033FB28A3D3E9002316F07AF9AF
:1059300022462B4616F02AFB0022294B16F074F95A
:1059400002460B464046494616F04AFC32463B4664
:1059500016F01CFB1EA3D3E9002316F063F93246B0
:105960003B4616F061F902460B4616F05DF9024619
:105970000B4619A1D1E9000116F054F9BDE8F88FE2
:1059800009F7FD0DE13D023F88B20175E0EF493FA7
:105990003B8F68B52882A43F5544880E55C1C93F46
:1059A0007D6FEB0312D6D43F555555555555C53F20
:1059B00082922EB1C5B8B33F59018D1B6C06E63FEC
:1059C000C88A599CE52A00404B2D8A1C273A03407F
:1059D000075C143326A6913C182D4454FB21094042
:1059E0000000F03F0000E03F434A91422DE9F843B8
:1059F0000C46054639DD414A914209DD02F17952F2
:105A0000914240DD02460B4616F00EF9BDE8F883E0
:105A100001F1404202F58012024330D0B1F1804FD3
:105A20003ADC0022364B16F0FDF802460B460446DF
:105A30000D4616F0F9F8224606460F462B4620463C
:105A4000294616F0A3FA02460B463046394616F0B0
:105A5000EBF818F00FF80B4602462946204616F0E0
:105A6000E3F8BDE8F843FFF74BBA02460B4616F0E1
:105A7000D9F802460B4616F0B3FBBDE8F8830020C8
:105A80000021BDE8F88300F01FFE19A3D3E900232D
:105A900016F0CAF8BDE8F88302460B4616F076FA0F
:105AA0000022174B16F0BEF817F0E4FF2A46804696
:105AB000894623462846214616F0B6F84246064651
:105AC0000F464B462846214616F0AEF802460B46D6
:105AD00000200B4916F084FB0B460246394630463F
:105AE00016F0A0F8BDE8F84300F0EEBDAFF300807B
:105AF000EF39FAFE422EE63FFFFFEF3FFFFFAF41D7
:105B00000000F03F000000002DE9F047C44B21F0F9
:105B10000048984584B00D46044616DD08F140481B
:105B200008F58018034658EA030326D002460B46C0
:105B300016F078F80B46024616F052FB04460B4668
:105B40002046194604B0BDE8F087B64B98458A4612
:105B50002EDCB8F1795F80F26D8195A3D3E9002343
:105B600016F062F80022B04B16F0A0FC00B32B46F2
:105B70002046194604B0BDE8F0878FA3D3E900237F
:105B800016F004FA8EA3D3E9002306460F462046FA
:105B9000294616F0FBF902460B463046394616F008
:105BA00043F804460B462046194604B0BDE8F0878A
:105BB0002046294616F040FF02460B4600209A492F
:105BC00016F030F80022994B16F0E0F97EA3D3E9E5
:105BD000002304460D4616F0D9F97DA3D3E900232E
:105BE00016F022F822462B4616F0D0F97AA3D3E914
:105BF000002316F017F822462B4616F0C7F978A3B3
:105C0000D3E9002316F010F822462B4616F0BEF911
:105C100075A3D3E9002316F005F822462B4616F0AB
:105C2000B5F973A3D3E9002315F0FEFF22462B46F6
:105C300016F0ACF970A3D3E90023CDE900012046AA
:105C4000294616F0A3F96EA3D3E9002315F0EAFF65
:105C500022462B4616F09AF96BA3D3E9002315F0E0
:105C6000E3FF22462B4616F091F969A3D3E90023FE
:105C700015F0D8FF22462B4616F088F96A4B002211
:105C800015F0D2FFCDE902012046294617F0F2FEB9
:105C9000674B984506460F4667DCDDE90223DDE9E0
:105CA000000116F09DFA3246CDE900013B46304630
:105CB000394615F0B9FF02460B46DDE9000116F042
:105CC00065F94FF00008CDE9000142463B464046E9
:105CD000394616F05BF902460B462046294615F078
:105CE000A1FF424604460D463B463046394615F074
:105CF0009BFF02460B462046294616F071FA0246E3
:105D00000B4615F091FF02460B462DA1D1E900018B
:105D100015F088FF02460B46DDE9000115F082FF11
:105D2000424604460D463B464046394615F07CFF48
:105D300002460B4638A1D1E9000115F073FF024677
:105D40000B462046294615F06DFF0B46024632A150
:105D5000D1E9000115F066FF04460B46BAF1000FC9
:105D60003FF7EEAE03F10043EAE6DDE90223DDE9A9
:105D7000000116F035FA32463B4616F007F9324676
:105D80003B4615F051FF02460B4615F04DFF0CA3A4
:105D9000D3E9002315F046FF0B46024606A1D1E9E0
:105DA000000115F03FFF04460B46D7E7AFF3008034
:105DB0009C7500883CE4377E182D4454FB21F93F44
:105DC000075C143326A6913C09F7FD0DE13D023F27
:105DD00088B20175E0EF493F3B8F68B52882A43F48
:105DE0005544880E55C1C93F7D6FEB0312D6D43F91
:105DF000555555555555C53F82922EB1C5B8B33F3F
:105E000059018D1B6C06E63FC88A599CE52A004063
:105E10004B2D8A1C273A0340182D4454FB21E93F9F
:105E2000FFFFEF3FFFFFDF3F0000F03F0000E03FDC
:105E30003233EF3F02460B4616F0A8F838A3D3E9F9
:105E4000002306460F4616F0A1F837A3D3E9002336
:105E500015F0EAFE32463B4616F098F834A3D3E933
:105E6000002315F0DFFE32463B4616F08FF832A3D2
:105E7000D3E9002315F0D8FE32463B4616F086F8EB
:105E80002FA3D3E9002315F0CDFE32463B4616F092
:105E90007DF82DA3D3E9002315F0C6FE32463B461C
:105EA00016F074F82AA3D3E90023804689463046C9
:105EB000394616F06BF828A3D3E9002315F0B2FE9B
:105EC00032463B4616F062F825A3D3E9002315F0CD
:105ED000ABFE32463B4616F059F823A3D3E9002324
:105EE00015F0A0FE32463B4616F050F80022204B3B
:105EF00015F09AFE02460B464046494616F070F9E8
:105F000022462B4616F042F822462B4615F08CFE10
:105F100004460B462046194604B0BDE8F08700BF92
:105F200009F7FD0DE13D023F88B20175E0EF493F01
:105F30003B8F68B52882A43F5544880E55C1C93FA0
:105F40007D6FEB0312D6D43F555555555555C53F7A
:105F500082922EB1C5B8B33F59018D1B6C06E63F46
:105F6000C88A599CE52A00404B2D8A1C273A0340D9
:105F70000000F03F000000002DE9F84F54421443A8
:105F800023F00049704E49EAD474B44286460F4665
:105F900040D84442044321F0004B4BEAD474B4424D
:105FA0008A4637D803F1404404F5801414434AD09C
:105FB0009C1704F0020444EAD17450EA0B0131D07A
:105FC00052EA090137D0B14552D0B34533D0ABEBDB
:105FD00009094FEA2959B9F13C0F3BDC002B66DB7C
:105FE0007046394616F0FCF816F026FDFEF7C8FCA0
:105FF000012C58D0022C48D0002C5ED040A3D3E90D
:10600000002315F00FFE40A3D3E9002315F00AFE8C
:10601000BDE8F88F1046194672463B4615F004FE5F
:10602000BDE8F88F022C19D0032C10D138A1D1E98A
:106030000001BDE8F88FBAF1000F14DB36A1D1E9F9
:106040000001BDE8F88FBDE8F84FFEF799BC39466E
:10605000BDE8F88F30A1D1E90001C9E72AA1D1E953
:106060000001BDE8F88F2EA1D1E90001BDE8F88F4D
:10607000CB4524D0022CF1D0032CD7D0012C4FF0EB
:10608000000027D00021BDE8F88F1DA3D3E900232D
:1060900015F0C8FD02460B461BA1D1E9000115F021
:1060A000C1FDBDE8F88F01F10041BDE8F88F19F19D
:1060B0003C0F95DA002000219AE7BDE8F88F022C0A
:1060C00016D0032C0FD0012C08D017A1D1E9000164
:1060D000BDE8F88F4FF00041BDE8F88F14A1D1E979
:1060E0000001BDE8F88F14A1D1E90001BDE8F88FE7
:1060F00013A1D1E90001BDE8F88F00BFAFF3008024
:10610000075C143326A6A13C182D4454FB210940FA
:10611000182D4454FB2109C0182D4454FB21F93F8C
:10612000182D4454FB21F9BF182D4454FB21E93F9D
:10613000182D4454FB21E9BFD221337F7CD902C002
:10614000D221337F7CD902400000F07F00000000A4
:1061500043422DE9F047034321F00048424A48EA10
:10616000D373934206460F4616D890454BD03F4B0B
:1061700098458A461EDC3AA3D3E90023044615F06D
:1061800053FD0022002316F091F9002845D03B462C
:1061900020461946BDE8F08702460B4615F042FD41
:1061A0000B46024616F01CF804460B4620461946DC
:1061B000BDE8F0872E4B9845044645462FDD024644
:1061C0004346414615F030FD224606460F464346FB
:1061D0000020254915F026FD02460B46304639467B
:1061E00015F0FEFFFEF78CFE224B002215F0CEFECE
:1061F000BAF1000F04460B46D8DA01F100432046FD
:106200001946BDE8F0870022002315F0E9FF044697
:106210000B4620461946BDE8F087344645462246DF
:106220002B462046294615F0FFFC22462B46064603
:106230000F4615F0ABFE2246804689462B460020CD
:10624000094915F0EFFC02460B464046494615F059
:10625000C7FF32463B4615F0E7FCC3E7AFF30080CB
:106260009C7500883CE4377E0000F03FFFFF2F3E26
:10627000FFFFDF3F0000E03F4F4A2DE9F84321F0E8
:10628000004494420B4605461BDC4C4A944222DDF6
:106290004B4A944263DD4B4A94427BDD4A4A944226
:1062A00046DD0132944240D041A3D3E90023104699
:1062B000194615F06BFE06460F4630463946BDE8D6
:1062C000F88302460B4615F061FE06460F4630463F
:1062D0003946BDE8F88316F0AFFB02F0A9FC0022B6
:1062E0003A4B8046894615F09FFCB4F1725F064632
:1062F0000F46ECDB42464B464046494615F046FE0B
:1063000032463B4604460D463046394615F08CFC75
:1063100002460B462046294615F062FF00222B4B11
:1063200015F082FC06460F46D1E7294A9042BBD8B9
:106330002846194616F080FB0022264B15F026FE53
:1063400000F04AF8002204460D46224B15F01EFECE
:1063500022462B4615F01AFE06460F46B7E716F002
:106360006BFB00F039F800221A4B06460F4615F079
:106370000DFE32463B4604460D460020154915F0F9
:106380002FFF02460B462046294615F04DFC0646D7
:106390000F469CE716F050FB00F01EF800220D4B54
:1063A00015F0F4FD06460F4691E700BFAFF30080FD
:1063B0009C7500883CE4377EFFFFEF7F422ED63F7E
:1063C000FFFF3540412E8640CD3386400000F03F30
:1063D0007DF8B98F0000E03F2DE9F04FB04F21F07C
:1063E0000042BA4283B00C464FEAD17605460DD939
:1063F000AC4FBA4225D9C1F31303034340F0EF80F9
:106400000EB10020014603B0BDE8F08FA64B9A42C2
:1064100000F2CC80A54B9A4200F2DE808AA3D3E939
:10642000002315F001FC0022A14B16F03FF80028D4
:1064300000F005812846214600229D4B15F0F4FB13
:10644000E1E783A3D3E9002316F030F8002840F0F9
:10645000CB802846214680A3D3E9002316F008F814
:106460000028CED1934B284603EBC60621467CA3D9
:10647000D3E9002315F08AFDD6E9002315F0D4FBFB
:1064800016F034F8804615F01BFD77A3D3E90023FE
:1064900006460F4615F07AFD02460B462846214671
:1064A00015F0C0FB72A3D3E90023CDE9000130460B
:1064B000394615F06BFD82468B4652465B46DDE958
:1064C000000115F0AFFB05460C462A462346284638
:1064D000214615F05BFD68A3D3E9002306460F466D
:1064E00015F054FD66A3D3E9002315F09BFB32465B
:1064F0003B4615F04BFD64A3D3E9002315F094FB54
:1065000032463B4615F042FD61A3D3E9002315F066
:1065100089FB32463B4615F039FD5FA3D3E90023E2
:1065200015F082FB32463B4615F030FD02460B4625
:106530002846214615F076FB06460F46284621469A
:1065400032463B46B8F1000F56D015F01FFD3246DB
:1065500004460D463B4600204FF0804115F062FB9B
:1065600002460B462046294615F03AFE02460B46E7
:106570005046594615F056FBDDE9002315F052FB55
:106580000B4602464A49002015F04CFB6FF47F731E
:1065900098454FDA08F57A7801EB085100224FF060
:1065A000B87315F0F3FC03B0BDE8F08F424B9A428C
:1065B0003FF658AF414BF4002344D3E9002315F0D4
:1065C00031FB3F4BC6F101082344CDE90001D3E97B
:1065D00000ABA8EB060870E74FF0000875E702462D
:1065E0000B4615F021FB0EE717A3D3E90023104655
:1065F000194615F0CBFC06E715F0C8FC00228046D2
:1066000089464FF080433046394615F00BFB024671
:106610000B464046494615F0E3FD2A46234615F051
:1066200001FB02460B460020214915F0FBFA03B09E
:10663000BDE8F08F01EB085103B0BDE8F08F804654
:1066400043E700BFAFF300809C7500883CE4377ED1
:10665000EF39FAFE422E864051302DD5104987C0C1
:10666000FE822B654715F73F0000E0FE422EE63F15
:10667000763C7935EF39EA3DD0A4BE726937663E83
:10668000F16BD2C541BDBB3E2CDE25AF6A56113F32
:1066900093BDBE166CC1663F3E5555555555C53F19
:1066A000412E8640FFFFEF7F422ED63FFFFF2F3E59
:1066B0000000F03FD0FB0100B1A2F03FE0FB010081
:1066C000F0FB0100000000002DE9F04FB1F5801F44
:1066D00085B006460F460B465ADA024621F00044C2
:1066E000224300F0F8800029C0F27A810022D64BC4
:1066F00015F04CFCD54A0B46934206460F466FF008
:10670000350C4ADCC3F3130505F5152E0EF6647E31
:106710000EF4801E8EF07F5282F440121C1542EA65
:106720000507A4F2FF3464440022C94B30463946C1
:1067300004EB1E5415F076FAAB1CC3F31303022BC3
:1067400082468B464FF0000230DC002315F086FEB7
:10675000002800F0C980002C00F04B81204615F085
:10676000AFFBA5A3D3E9002306460F4615F00EFCA8
:10677000A3A3D3E9002304460D463046394615F05D
:1067800005FC02460B462046294615F04DFA0AE064
:10679000AE4A93424FF0000CB4DD32463B463046E1
:1067A000394615F041FA05B0BDE8F08F4FF080434F
:1067B00015F03AFA02460B465046594615F010FDC0
:1067C000064620460F4615F07BFB3246CDE9000118
:1067D0003B4630463946CDE9026715F0D7FB024605
:1067E0000B468046894615F0D1FB87A3D3E90023E9
:1067F00006460F4615F0CAFB85A3D3E9002315F022
:1068000013FA32463B4615F0C1FB83A3D3E90023BC
:1068100015F00AFA32463B4615F0B8FB80A3D3E9DF
:10682000002315F001FA42464B4615F0AFFB7EA35C
:10683000D3E90023804689463046394615F0A6FB49
:106840007BA3D3E9002315F0EFF932463B4615F060
:106850009DFB79A3D3E9002315F0E6F932463B46C8
:1068600015F094FB0B4602464946404615F0DCF90C
:10687000A5F5C223C5F5D725A3F27A4351351D43AB
:10688000002D8046894656DD0022724B50465946FF
:1068900015F07CFB52465B4615F078FB06460F462A
:1068A000002C68D132463B464046494615F0BCF9BB
:1068B000DDE9022315F06AFB02460B4630463946F5
:1068C00015F0B0F902460B465046594615F0AAF9A4
:1068D00005B0BDE8F08F0022002300205E4915F0CE
:1068E0007FFC05B0BDE8F08F55A3D3E900235046E7
:1068F000594615F04BFB02460B460020554915F052
:1069000091F9524606460F465B465046594615F0E9
:106910003DFB02460B463046394615F037FB06462E
:106920000F46002C40F09A8002460B4650465946CE
:1069300015F078F937E7002C00F0A4802EA3D3E9F6
:106940000023DDE9000115F021FB42464B460446D9
:106950000D465046594615F065F9DDE9022315F05C
:1069600015FB27A3D3E9002306460F46DDE9000106
:1069700015F00CFB21E020A3D3E90023DDE90001A1
:1069800015F004FB32463B4604460D464046494658
:1069900015F04AF9DDE9022315F0F8FA18A3D3E956
:1069A000002380468946DDE9000115F0EFFA024632
:1069B0000B464046494615F037F902460B4630462D
:1069C000394615F02FF952465B4615F02BF9024671
:1069D0000B462046294615F025F905B0BDE8F08F95
:1069E00002460B4615F01EF90022002315F0F8FBB5
:1069F000D9E600200021D6E60000E0FE422EE63F68
:106A0000763C7935EF39EA3D44523EDF12F1C23F20
:106A1000DE03CB966446C73F599322942449D23F64
:106A2000935555555555E53F9FC678D0099AC33FB4
:106A3000AF788E1DC571CC3F04FA97999999D93FCB
:106A4000555555555555D53F00005043FFFFEF7F35
:106A50000000F03F0000E03F000050C3204615F06A
:106A60002FFA0FA3D3E900238046894615F08EFA4A
:106A70000DA3D3E9002304460D464046494615F0D0
:106A800085FA9AE702460B465046594615F0CAF871
:106A9000DDE9022315F07AFA14E700BFAFF30080B6
:106AA0000000E0FE422EE63F763C7935EF39EA3DC4
:106AB000B1F5801F2DE9F84304460D460B461ADA5E
:106AC000024621F00046324359D000295FDB002204
:106AD0003B4B15F05BFA3B4A0B4693420D4604468E
:106AE0006FF035010CDD22462B462046294615F075
:106AF0009BF8BDE8F883334A93424FF00001F2DC83
:106B00001815A0F2FF3008444FEAD0794844C3F387
:106B1000130815F0D5F9C9F57F73033348EA035517
:106B200006460F4620462946FFF7CEFD1EA3D3E9B1
:106B30000023804689463046394615F027FA1CA3C3
:106B4000D3E9002304460D464046494615F01EFA97
:106B500002460B462046294615F066F816A3D3E9EF
:106B6000002304460D463046394615F00FFA02461A
:106B70000B462046294615F057F8BDE8F883002259
:106B800000230020104915F02BFBBDE8F8830246D6
:106B90000B4615F047F80022002315F021FBBDE855
:106BA000F88300BFAFF30080362BF111F3FE593D9F
:106BB0000EE526157BCBDB3F00609F501344D33F8F
:106BC00000005043FFFFEF7F000050C300000000B3
:106BD0002DE9F04F23F0004757EA020493B037D075
:106BE000674C21F00046A64283460D4629DC9A46B2
:106BF000964625D0A74224DC614CA74279D0002DCF
:106C000089468046CDE9002377DB0024BEF1000FE2
:106C10002CD15B4B9F4200F08B805A4B9F4261D03E
:106C2000BAF1804F00F0BA83574B9A451ED1002D20
:106C30001CDB4046494613B0BDE8F04F16F01ABFC2
:106C400058B106F1404606F5801656EA0B0306D108
:106C50004C49002013B0BDE8F08FB742CCDD4B4863
:106C600013B0BDE8F04F17F04BBE00244046494634
:106C700015F0E2FEBBF1000F19D126B1414B25F012
:106C800040429A4213D1BAF1000FC0F2BC83002DEA
:106C9000E0DA06F1404606F5801656EA040300F0F5
:106CA0008F84012CD6D101F100431946D2E7ED0FB4
:106CB000013D54EA05034ED0354B9F426EDD03F192
:106CC00004739F4240F3E883324B9E424EDDBAF19B
:106CD000000F4EDD28A3D3E900231046194615F016
:106CE00055F9B7E7BAF1000FC0F23C844046494677
:106CF000B0E7BEF1000F82D0A3E7274B9F4228DC0C
:106D0000A3F154739F4280DD3B15A3F2FF33142B94
:106D100040F33E84C3F134032EFA03F202FA03F384
:106D20009E457FF472AF02F00102C2F102046DE7EA
:106D300006F1404303F5801353EA0B0388D0154B4B
:106D40009E4240F33283BAF1000F12DBDDE900010D
:106D500080E702245AE742464B464046494614F033
:106D600061FF02460B4615F03BFA73E7BAF1000FDC
:106D7000B0DB002000216DE79C7500883CE4377E85
:106D80000000F07F0000F03F0000E03F98010200AB
:106D90000000E041FFFFEF3FFFFF3F43B6F5801FDC
:106DA0004FF0000205DAD44B15F0F0F86FF0340222
:106DB0000E463315D14FC6F31306A3F2FF33134427
:106DC00046F07F5ABE421A460D934AF4401A40F3E9
:106DD0002183CB4B9E4240F3FD83134601330D9339
:106DE000C84B0022CDE9062300270026CDE908671D
:106DF000CDE90E67AAF5801A002702465346514690
:106E0000CDE90A23DDE9062314F00CFFDDE90623B2
:106E100080468946DDE90A0114F006FF02460B466A
:106E20000020B84915F0DCF90A460146CDE91012F8
:106E3000134649460246404615F0A8F84FEA6A0351
:106E400043F000538C46834603F50023CDE904BC90
:106E5000DA468B46D9190023CDE902AB0293DDE96E
:106E600002AB002006460F4602460B4650465946E6
:106E700015F08CF802460B464046494614F0D2FE07
:106E8000DDE90623804689463046394614F0CAFEBD
:106E900002460B46DDE90A0114F0C4FE52465B4689
:106EA00015F074F802460B464046494614F0BAFE07
:106EB000DDE9102315F06AF8DDE90467CDE9060184
:106EC00032463B463046394615F060F878A3D3E9A0
:106ED000002306460F4615F059F877A3D3E900239F
:106EE00014F0A2FE32463B4615F050F874A3D3E9E5
:106EF000002314F099FE32463B4615F047F872A382
:106F0000D3E9002314F090FE32463B4615F03EF8DC
:106F10006FA3D3E9002314F087FE32463B4615F0F9
:106F200035F86DA3D3E9002314F07EFE3246804687
:106F300089463B463046394615F028F802460B464E
:106F40004046494615F022F8524606460F465B4633
:106F5000DDE9040114F068FEDDE9062315F016F8FA
:106F600032463B4614F060FE5246804689465B46F8
:106F70005046594615F00AF80022634BCDE90A0144
:106F800014F052FE42464B4614F04EFE02980F4655
:106F9000064632463B465046594614F0F7FF00225B
:106FA00082468B46584B3046394614F03BFEDDE9AD
:106FB0000A2314F037FE02460B464046494614F0B9
:106FC00031FEDDE9042314F0E1FF324680468946B4
:106FD0003B46DDE9060114F0D9FF02460B46404668
:106FE000494614F021FE8046894602460B4650462B
:106FF0005946CDE904AB14F017FEDDE902AB38A326
:10700000D3E9002350460F4614F0C0FFDDE9042306
:10701000CDE902013946504614F004FE02460B4603
:107020004046494614F0FEFD2FA3D3E9002314F097
:10703000ADFF2FA3D3E90023804689465046394649
:1070400014F0A4FF02460B464046494614F0ECFDFE
:10705000DDE90E2314F0E8FD80460D98894614F012
:107060002FFF424606460F464B46DDE9020114F06B
:10707000DBFDDDE9082314F0D7FD32463B4614F072
:10708000D3FD32463B4650468B4614F0CBFDDDE93E
:10709000082314F0C7FDDDE9022314F0C3FD024606
:1070A0000B464046494614F0BDFD80462EE000BF29
:1070B000EF4E454A287ECA3F65DBC9934A86CD3FDD
:1070C00001411DA96074D13F4D268F515555D53FC3
:1070D000FFAB6FDBB66DDB3F033333333333E33F5B
:1070E000000000E009C7EE3FFD033ADC09C7EE3FB0
:1070F000F5015B14E02F3EBE000040438E98030074
:1071000079B60B000000F03F000008408946013CC2
:1071100054EA0503DDE9000114BFD94CD94C002322
:10712000CDE9043403460C46CDE902340023029332
:10713000DDE9024522462B4614F074FD52465B46BB
:1071400014F024FFDDE9002306460F464046494679
:1071500014F01CFF02460B463046394614F064FD1D
:107160002246804689462B4650465946CDE900893D
:1071700014F00CFF0B46024606460F4640464946B1
:1071800014F052FDC04B994204460D468A4640F326
:10719000168101F13F4303F5E003034340F0EA8128
:1071A000A3A3D3E90023DDE9000114F03DFD32463D
:1071B000804689463B462046294614F033FD024668
:1071C0000B464046494615F071F9002840F0D2813F
:1071D000A8464FEA28534FF48012A3F2FE3342FA36
:1071E00003F35344C3F30A52A84DA2F2FF321541F0
:1071F000C3F3130423EA05010020C2F1140B44F485
:107200008014BAF1000F02460B4644FA0BFB3046DD
:107210003946B8BFCBF1000B14F004FD02460B4613
:1072200006460F46DDE9000114F0FEFC4FEA0B5A5A
:107230000D46002480A3D3E900232046294614F0FC
:10724000A5FE3246804689463B462046294614F034
:10725000E9FC02460B46DDE9000114F0E3FC78A3EB
:10726000D3E9002314F092FE77A3D3E90023064666
:107270000F462046294614F089FE02460B4630464A
:10728000394614F0D1FC06460F4602460B464046EE
:10729000494614F0C9FC42464B4604460D4614F0DC
:1072A000C1FC02460B463046394614F0BBFC224670
:1072B000804689462B462046294614F067FE64A383
:1072C000D3E9002306460F4614F060FE62A3D3E91B
:1072D000002314F0A7FC32463B4614F057FE60A38F
:1072E000D3E9002314F0A0FC32463B4614F04EFED6
:1072F0005DA3D3E9002314F095FC32463B4614F01D
:1073000045FE5BA3D3E9002314F08EFC32463B46D6
:1073100014F03CFE02460B462046294614F082FC3F
:1073200006460F4602460B462046294614F02EFE1E
:107330000022CDE900014FF080433046394614F079
:1073400071FC02460B46DDE9000114F049FF42469C
:1073500006460F464B462046294614F017FE424685
:107360004B4614F061FC02460B463046394614F099
:1073700059FC22462B4614F055FC02460B460020D1
:107380003F4914F04FFC8A44BAF5801FC0F23381A4
:107390005146DDE9042314F0F9FD5BE44246404622
:1073A0004B46494614F0F2FD54E4BAF1000FBFF623
:1073B000E0ACDDE90034184604F100414AE4344B06
:1073C00021F00048984540F3F280324B0B440343D0
:1073D0000CD132463B4614F025FC02460B46DDE953
:1073E000000115F04FF800283FF4F3AEDDE9040189
:1073F00021A3D3E9002314F0C9FD1FA3D3E900237F
:1074000014F0C4FD26E402460B4600201C4914F08B
:10741000E7FE3CE400220023CDE90823CDE90E235A
:10742000174B00220027CDE90623E6E4AFF30080E6
:10743000FE822B654715973C00000000432EE63F77
:10744000EF39FAFE422EE63F396CA80C615C20BE93
:10745000D0A4BE726937663EF16BD2C541BDBB3E5A
:107460002CDE25AF6A56113F93BDBE166CC1663F38
:107470003E5555555555C53F59F3F8C21F6EA501E8
:107480000000F03F0000F0BFFFFF8F40FFFF0F0044
:10749000FFCB904000346F3F6B4B9E427FF766AC52
:1074A0006A4B9E423FF713AC0022684B14F0BAFBC4
:1074B00057A3D3E9002306460F4614F067FD56A3F1
:1074C000D3E90023804689463046394614F05EFDF4
:1074D000002282468B465E4B3046394614F056FDFC
:1074E00002460B464EA1D1E9000114F09BFB324647
:1074F0003B4614F04BFD02460B460020554914F064
:1075000091FB3246CDE902013B463046394614F044
:107510003DFD02460B46DDE9020114F037FD42A3B2
:10752000D3E9002314F032FD02460B46504659467B
:1075300014F078FB02460B4606460F464046494685
:1075400014F072FB42464B46002082468B4614F0F4
:1075500069FB02460B463046394614F063FB804611
:107560008946D4E542464B460020384914F038FE9F
:10757000FFF770BBDDE904012DA3D3E9002314F06C
:1075800005FD2BA3D3E9002314F000FDFFF762BB38
:10759000BEF1000F7FF469ABC3F1140347FA03F2A5
:1075A00002FA03F39F422AD07446FFF736BB294BF9
:1075B00098453FF70EAEDDE902239246934638E642
:1075C00002460B4614F02EFB02460B4614F008FE52
:1075D000FFF740BB18A3D3E90023CDE9082318A384
:1075E000D3E90023CDE90E231B4B00224FF4802763
:1075F000CDE9062301E45A4601F05AFDC9E602F03E
:107600000102C2F10204FFF708BB00BFAFF3008024
:10761000000000604715F73F44DF5DF80BAE543EB5
:10762000555555555555D53FFE822B654715F73FA6
:107630009C7500883CE4377E0000004003B8E23FC0
:1076400006D0CF43EBFD4C3EFEFFEF3F0000F03F86
:107650000000D03F0000E03F0000F83F00000000C5
:107660002DE9F04F9A4E21F00047B74291B040F318
:107670008E809246974A97420C4626DC00298AA3C0
:10768000D3E9002340F3B48114F0CCFA924B9F422B
:1076900004460D4600F0908085A3D3E9002314F042
:1076A000C1FA02460B46CAE900232046294614F0D7
:1076B000B9FA7FA3D3E9002314F0B4FA0125CAE98B
:1076C0000201284611B0BDE8F08F844A974240F38A
:1076D0009080834A974265DC3D15A5F21645A7EBDD
:1076E000055319461F46064614F000FF14F0E8FB48
:1076F0008046894602460B4630463946CDE90A891E
:1077000014F090FA0022774B14F040FC8946804632
:1077100014F0ECFE14F0D4FB02460B4606460F466E
:1077200040464946CDE90C6714F07CFA00226D4BC7
:1077300014F02CFC00220023CDE90E0114F08EFE83
:10774000002800F07381002330463946002214F0EF
:1077500085FE002814BF01230223634A01920221FF
:107760002A4600910AA8514600F086FB002C0546E7
:1077700014DADAF80420DAF80C3002F1004203F1EE
:1077800000434542CAF80420CAF80C3006E0C2E9BA
:10779000000100250024C2E902450025284611B059
:1077A000BDE8F08F02460B4614F03CFA0025CAE90A
:1077B0000201CAE90001F1E73FA3D3E9002314F075
:1077C00031FA3FA3D3E900230D46044614F02AFA08
:1077D00002460B46CAE900232946204614F022FA45
:1077E00037A3D3E9002314F01DFA0125CAE90201E9
:1077F000D4E715F021F934A3D3E900238046894664
:1078000014F0C4FB0022394B14F00EFA14F06EFE93
:10781000054614F055FB24A3D3E90023CDE9040168
:1078200014F0B4FB02460B464046494614F0FAF900
:107830001FA3D3E9002380468946DDE9040114F043
:10784000A5FB1F2DCDE9020154DC294B6A1E53F81C
:1078500022309F424ED002460B464046494614F025
:10786000E1F902460B46CAE9002383460E465A4612
:1078700033464046494614F0D5F9DDE9022314F0B9
:10788000D1F9002C02460B46CAE9022386DA5B4690
:1078900006F1004601F100418AE84800CAF80C10E0
:1078A000CAF808006D4279E700004054FB21F93F17
:1078B0003163621A61B4D03D0000601A61B4D03DFA
:1078C0007370032E8A19A33B83C8C96D305FE43FF0
:1078D000FB21E93F7BD90240FB21F93FFB213941E4
:1078E000FFFFEF7F00007041D81002000000E03F72
:1078F00058100200DDE902234046494614F092F98F
:107900003A15C1F30A53D31A102B83460E46099237
:10791000CAE90001ABDD58A3D3E90023DDE9040186
:1079200014F034FB06460F4602460B4640464946D5
:1079300014F078F9CDE9060102460B464046494667
:1079400014F070F932463B4614F06CF94CA3D3E9BD
:10795000002306460F46DDE9040114F017FB32460A
:107960003B4614F05FF9DDE90689CDE902010246E4
:107970000B464046494614F055F90B46C1F30A57E9
:107980000E460999CF1B0246312F8346CAE90023D0
:107990006CDD3DA3D3E90023DDE9040114F0F6FA20
:1079A00006460F4602460B4640464946CDE9068943
:1079B00014F038F902460B4680468946DDE9060197
:1079C00014F030F932463B4614F02CF930A3D3E9D9
:1079D000002306460F46DDE9040114F0D7FA3246CB
:1079E0003B4614F01FF902460B46CDE9022334E76B
:1079F00014F01AF92A4B9F4204460D4618D026A3CC
:107A0000D3E9002314F010F902460B46CAE900231B
:107A10002946204614F006F91FA3D3E9002314F0E9
:107A200003F94FF0FF35CAE90201B7E6032394E6F4
:107A300011A3D3E9002314F0F7F811A3D3E900232D
:107A40000D46044614F0F0F802460B46CAE900233E
:107A50002946204614F0E6F809A3D3E9002314F0E0
:107A6000E3F84FF0FF35CAE9020197E6DDE9068940
:107A7000FDE600BFAFF300800000601A61B4D03DA6
:107A80007370032E8A19A33B0000002E8A19A33BB2
:107A9000C14920259A837B393163621A61B4D03D94
:107AA000FB21F93F00000000574A2DE9F84F21F073
:107AB000004890450E4607462BDC544B0029B4BFC6
:107AC000534D544D98454FF0000410DC524B9845EF
:107AD0006EDC4BA3D3E9002314F0A6F800224F4B31
:107AE00014F0E4FCD8B138463146BDE8F88F4C4B71
:107AF000984579DD4B4B984543DD013398453DD0A2
:107B0000384631463EA3D3E9002314F03FFABDE8DE
:107B1000F88F02460B4614F087F8BDE8F88F384618
:107B2000314614F089FF01F083F806460F463246CD
:107B30003B463046394614F077F8324682468B464B
:107B40003B463046394614F021FA002280468946E9
:107B5000324B3046394614F067F802460B46404631
:107B6000494614F03DFB02460B465046594614F078
:107B700059F822462B4614F009FACEE72A4B9842D0
:107B8000BED83846314614F057FF0022214B14F07E
:107B9000FDF9FEF721FC06460F4602460B4620463D
:107BA000294614F0F3F932463B4614F0EFF9B4E7F6
:107BB00014F042FF01F03CF81C4B984506460F4676
:107BC000B5DD0022154B14F02FF802460B46304667
:107BD000394614F005FB32463B4614F025F82246A0
:107BE0002B4614F0D3F998E714F026FFFEF7F4FBC8
:107BF00002460B462046294614F0C8F98DE700BF1F
:107C00003374AC3C1F7BAC7FFFFFEF7FFFFF354041
:107C10000000E0BF0000E03FFFFF2F3E0000F03F0C
:107C2000412E8640CD3386407DF8B98FFFFFEF3F70
:107C30002DE9F04F21F00046B6F1795F85B00C4692
:107C400092469B4605466BDA14F050FC002800F083
:107C5000E8802A4623462846214614F097F974A363
:107C6000D3E900238046894614F090F972A3D3E942
:107C7000002313F0D9FF42464B4614F087F970A356
:107C8000D3E9002313F0CEFF42464B4614F07EF9B1
:107C90006DA3D3E9002313F0C7FF42464B4614F00F
:107CA00075F96BA3D3E9002313F0BCFF42464B46A2
:107CB00014F06CF968A3D3E9002313F0B5FF424632
:107CC0004B4614F063F9CDE900010022644B4046B5
:107CD000494614F05BF9DDE9002306460F464046AD
:107CE000494614F053F95246804689465B46284679
:107CF000214614F04BF902460B464046494613F024
:107D000091FF02460B463046394613F08BFF024680
:107D10000B460020534913F085FF05B0BDE8F08FF6
:107D200002460B4614F032F941A3D3E90023804602
:107D3000894614F02BF940A3D3E9002313F074FF14
:107D400042464B4614F022F93DA3D3E9002313F039
:107D500069FF42464B4614F019F93BA3D3E90023CF
:107D600013F062FF42464B4614F010F938A3D3E9F2
:107D7000002313F057FF42464B4614F007F936A391
:107D8000D3E9002313F050FF4B46424614F0FEF8AF
:107D9000354B9E42CDE9000197DD344B9E424FF0BA
:107DA000000238DCA6F5001300202E4916461F46B7
:107DB00013F038FFCDE902010022294B4046494625
:107DC00014F0E4F832463B4613F02CFFDDE90023C3
:107DD00006460F464046494614F0D8F852468046BB
:107DE00089465B462846214614F0D0F802460B46E9
:107DF0004046494613F016FF02460B4630463946C8
:107E000013F010FF02460B46DDE9020113F00AFFF2
:107E100005B0BDE8F08F164B164FCDE902230026C2
:107E2000CAE71049002005B0BDE8F08FAFF300802D
:107E3000D43888BEE9FAA8BDC4B1B4BD9EEE213ED7
:107E4000AD529C804F7E923E9015CB19A001FA3E18
:107E50007751C1166CC1563F4C5555555555A53FE8
:107E60000000E03F0000F03F3233D33F0000E93F25
:107E70000000E73F0000D23F2DE9F04FADF5197D3E
:107E80009C4CA29E9C4D54F8264005942646D41E38
:107E900085FB0475E417C4EBA50424EAE4741D46CD
:107EA0000893631CA3EB8303013D02EBC30304931C
:107EB0002B4609940295651BF418039006911AD479
:107EC0002C4401340DF1780800260027DDF88C924F
:107ED00008E059F8250013F0F3FF0135A542E8E961
:107EE000020108D0002DF4DA013530463946A542AA
:107EF000E8E90201F6D1059B002B2EDB089B4FEA37
:107F0000C309039BA9F10808984420AB9944059B39
:107F100070AA02EBC30B0DF5DC7A029B002BC0F2BA
:107F20000F83039B4D46A3F108040026002775E943
:107F30000223F4E9020114F029F802460B46304608
:107F4000394613F071FE444506460F46EFD1EAE983
:107F50000267DA4509F10809DFD10598089A00900F
:107F600000F18043013B9B000CAC191F234402F13C
:107F700000520B93039B013A21440A9103EBC20B7D
:107F8000009A98A901EBC203002A53E92845134639
:107F90002BDD01EBC308A8F1A8080DF12C090DF5A4
:107FA000DC7A0022554B2046294613F0EFFF14F0EF
:107FB0009DFA13F085FF0022514B06460F4613F041
:107FC000E5FF02460B462046294613F02BFE14F02F
:107FD0008DFA78E8022349F8040F3946304613F049
:107FE00023FED04504460D46DBD1DDF81090204637
:107FF00029464A4601F05CF800224FF07F530446C0
:108000000D4613F0C3FFFCF7EFFE00223D4B13F0CB
:10801000BDFF02460B462046294613F003FE0D46DF
:10802000044614F063FA804613F04AFF0B460246FA
:108030002946204613F0F6FD4B46002B06460F4618
:1080400040F3F780009A0CA9013AC9F1180351F8DE
:10805000225045FA03F101FA03F30CA8EB1A40F899
:108060002230C9F11705884443FA05F5002D63DD78
:10807000009B002B08F1010840F381820C9C002C2E
:1080800000F01883012000230CAAC4F1807442F888
:108090002340009A824219DD0CAA0CAC52F8201041
:1080A0006FF07F42511A44F8201000990233994230
:1080B0000CDD1046009A0CA901EB830301EB820151
:1080C0001A68821A43F8042B8B42F9D1049B002BC7
:1080D0001ADD049B012B4FF0010440F05882009BF5
:1080E0005A1E0CAB0CA953F82230C3F3160341F807
:1080F000223058E278150200ABAAAA2A0000703E8E
:108100000000704100002040022D15D132463B4650
:108110000020974913F086FD06460F46049A9449BD
:10812000002000F0C5FF02460B463046394613F0EA
:1081300079FD022506460F460022002330463946C7
:1081400014F08CF9002800F05282009A059B501E12
:1081500083420FDC02F18043013B0CAA0B9C02EB33
:108160008303002253F80419A34242EA0102F9D121
:10817000002A6FD1059B0CAA013B52F82330002B3B
:1081800040F033820A9A012352F80419013300297E
:10819000FAD0009AD31802F1010A9A4507933DDC00
:1081A000009B0899099A0B4407990AEB0208994623
:1081B00020AB08F1804803EBC9098B18A39A08F19A
:1081C000FF3802EB880870AA02EBCA0AA39A02EBF6
:1081D0008303009358F8040F13F072FE029B002BE8
:1081E000E9E802011DDB039B4D46A3F108040026CC
:1081F000002775E90223F4E9020113F0C7FE0246E5
:108200000B463046394613F00FFD5C4506460F46D7
:10821000EFD1009B9845EAE80267DBD1079B00930A
:10822000AEE6009B002600279845EAE80267D1D118
:10823000F4E706D1009B0CAA013B52F82350ED1540
:1082400014E700224B4B14F027F9002840F08281FC
:10825000054671E70CA9029551F820300499CDF834
:108260001C8018390246009004916BB900F18043DC
:10827000013B0CA800EB830353F80409013A1839B9
:108280000028F9D000920491049A3949002000F0A6
:108290000FFF009B002B04460D46C0F20382DA005C
:1082A00070A901EB020B04920CAA02EB8306DFF823
:1082B000C8900BF1080704364FF0000856F8040D7B
:1082C00013F0FEFD22462B4613F060FE4B4667E995
:1082D000020142462046294613F058FE0CAB9E424E
:1082E00004460D46EAD10DF5907ACDF80CA0DDF8E4
:1082F00014A04FF00009BAF1000FC0F23D81DFF881
:108300007C805D4618A1D1E90001002600270024E9
:1083100003E04C4510DCF8E80201F5E8022313F015
:1083200035FE02460B463046394613F07DFC0134DB
:10833000A24506460F46ECDA039B03EBC903ABF1FB
:10834000080BC3E900676EAB5B4509F10109D2D1A7
:10835000A29BDDF80CA0032B00F28B80DFE813F06A
:10836000D10090009000100000000040FB21F93F78
:108370000000F03F0000E03F0000703E18FC0100EC
:10838000009B002B40F3A481049B0AEB0308D8E96F
:108390000067D34658E9029A32463B464846514662
:1083A00013F042FC04460D4602460B464846514631
:1083B00013F038FC32463B4613F036FCC8E90001A6
:1083C00068E90245C34526462F46E3D1009B012BB1
:1083D000DA4640F37D81049B5B44D3E9006798460D
:1083E00099460DF5947B59E90234324618462146E8
:1083F0003B46CDE9000113F017FC04460D4602464A
:108400000B46DDE9000113F00DFC32463B4613F04C
:108410000BFCC9E9000169E90245CB4526462F4618
:10842000E1D1002308F108081D464CAC1846294646
:1084300078E9022313F0F8FB444503460D46F5D1D5
:10844000029A002A00F02081DAF80440DAF80C20C1
:10845000069FDAF80010DAF808003B6105F10045E4
:1084600004F1004402F100427D617C60FA603960F1
:10847000B860079B03F007000DF5197DBDE8F08F8C
:10848000049C00260834544433463046194674E9A7
:10849000022313F0C9FB544506460B46F5D1029A58
:1084A00030461946002A00F0DA80069803F10044AD
:1084B000324644600660DAE9000113F0B3FB0B4674
:1084C0000099002902460EDD012410461946FAE9FA
:1084D000022313F0A9FB0B4600990134A142024686
:1084E000F3DA029909B103F100431946069B1046DD
:1084F000C3E90201079B03F007000DF5197DBDE8F4
:10850000F08F049C00220834544413461046194648
:1085100074E9022313F088FBA24502460B46F5D10D
:10852000029909B103F100431946069B1046C3E9BD
:108530000001079B03F007000DF5197DBDE8F08FE2
:1085400000260027EAE90267DA4509F108097FF405
:10855000E4AC02E5009B002B08F10108C8BF02252E
:108560003FF78CAD32463B460020634913F05AFB7F
:10857000022506460F46DFE500260027DCE6049BC1
:10858000002B26DD0024049B012B3FF4A8AD022B19
:1085900009D1009B5A1E0CAB0CA953F82230C3F32F
:1085A000150341F82230022D7FF4C6AD32463B461A
:1085B0000020514913F036FB06460F46002C3FF4CD
:1085C000BBADABE500990133994278D1049B002BF8
:1085D000D9DC022D7FF4B0AD32463B46002046493F
:1085E00013F020FB06460F46A6E50123D1E53946E8
:1085F000049F02957A423046CDF81C8000F058FD69
:1086000000223E4B04460D4613F046FF002862D080
:1086100000223B4B2046294613F0B8FC13F066FFBE
:10862000064613F04DFC0022344B13F0AFFC02461B
:108630000B462046294613F0F5FA13F057FF009930
:108640000B4601331A4600933B46183304930B46FE
:108650000CA941F82300134641F8236014E6069B59
:108660003246C3E900010B46DAE9000113F0DAFAF9
:108670000B460099002902463FF726AF1946069B94
:108680001046C3E9020135E718462946DAE9002316
:10869000DAE90245069FC7E90401C7E90023C7E9F3
:1086A0000245E6E6A29B032B3FF6E3AEDFE803F0CC
:1086B000211C1C0E009B012B88DD0CAA012352F803
:1086C000044F002C3FF47EAF581CDDE40DF5907A8A
:1086D00000231D46B4E62946204613F007FF009A02
:1086E0000CA941F82200CFE5002633460DF5907A1B
:1086F000D5E60022134613E70000F03F000070416A
:108700000000703E000000002DE9F04F21F000460F
:10871000B6F1795F85B00C4690469946054604DA75
:1087200013F0E4FE002800F085802A462346284600
:10873000214613F02BFC06460F4602460B46284600
:10874000214613F023FC3EA3D3E9002382468B4647
:108750003046394613F01AFC3BA3D3E9002313F04B
:1087600061FA32463B4613F011FC39A3D3E90023EA
:1087700013F05AFA32463B4613F008FC36A3D3E90D
:10878000002313F04FFA32463B4613F0FFFB34A3AD
:10879000D3E9002313F048FA0E9BCDE900019BB307
:1087A0000022334B4046494613F0F0FBDDE900233D
:1087B000CDE902015046594613F0E8FB02460B464C
:1087C000DDE9020113F02EFA32463B4613F0DEFBE0
:1087D00042464B4613F026FA23A3D3E9002306466C
:1087E0000F465046594613F0D1FB02460B46304621
:1087F000394613F019FA02460B462846214613F073
:1088000011FA05B0BDE8F08F02460B4630463946F6
:1088100013F0BCFB14A3D3E9002313F003FA524670
:108820005B4613F0B3FB2A46234613F0FDF905B06F
:10883000BDE8F08F2846214605B0BDE8F08F00BFA7
:108840007CD5CF5A3AD9E53DEB9C2B8AE6E55A3EDA
:108850007DFEB157E31DC73ED561C119A0012A3F76
:10886000A6F810111111813F495555555555C53F71
:108870000000E03F000000002DE9F04FDA4C21F04D
:108880000046A64287B08A468946174698468346E0
:108890001ADC13F02BFEA8BB5B461E43109B013372
:1088A000334300F0A981109B012B00F0B9815A4697
:1088B00053460020CD4913F093FC04460D46204654
:1088C000294607B0BDE8F08FC94B9E421ADD00294A
:1088D000C0F29F815A465346A5A1D1E9000113F089
:1088E000A1F93A46434604460D46A3A1D1E9000149
:1088F00013F098F922462B4613F096F90027834689
:108900008A46B8465A4653465846514613F03EFBEF
:1089100003460C46CDE9003402460B4613F036FB05
:10892000DDE9002304460D465846514613F02EFB60
:1089300093A3D3E90023CDE902012046294613F091
:1089400025FB91A3D3E9002313F06EF922462B46B1
:1089500013F01CFB8EA3D3E9002313F065F9224624
:108960002B4613F013FB8CA3D3E9002313F05CF91F
:1089700022462B4613F00AFB89A3D3E9002313F008
:1089800053F922462B4613F001FB87A3D3E90023BA
:1089900013F04AF9DDE9002313F0F8FA84A3D3E9D0
:1089A0000023CDE904012046294613F0EFFA82A303
:1089B000D3E9002313F038F922462B4613F0E6FAE8
:1089C0007FA3D3E9002313F02FF922462B4613F09F
:1089D000DDFA7DA3D3E9002313F026F922462B46C6
:1089E00013F0D4FA7AA3D3E9002313F01DF9224639
:1089F0002B4613F0CBFA78A3D3E9002313F014F934
:108A000002460B46DDE9040113F00EF9DDE902230D
:108A100013F0BCFA3A46434613F006F9DDE90023A9
:108A200013F0B4FA02460B463846414613F0FCF800
:108A30006BA3D3E9002304460D46DDE9020113F0E0
:108A4000A5FA22462B4613F0EFF80B460246514694
:108A50005846CDE9002313F0E7F8654B9E420446E3
:108A60000D463EDC109B012B36D002460B46002003
:108A70005E4913F0B5FB00240F4606465A4653469E
:108A80002046294613F0CEF8A04602460B46DDE903
:108A9000000113F0C7F842463B4613F077FAA946A7
:108AA00004460D4642463B464046494613F06EFAA0
:108AB0000022504B13F0B8F802460B4620462946D8
:108AC00013F0B2F832463B4613F060FA42463B469A
:108AD00013F0AAF804460D462046294607B0BDE823
:108AE000F08F109813F0ECF9224606460F462B46FD
:108AF0002046294613F04AFA3246CDE902013B46A8
:108B00002046294613F090F802460B46DDE90201A3
:108B100013F066FBDDE9002313F084F802460B46F0
:108B20005846514613F07EF802460B4613F07CF887
:108B300002460B463046394613F074F804464FEAB5
:108B4000A97000F00200C0F101000D4613F0B8F961
:108B500002460B462046294613F018FA04460D46F5
:108B60002046294607B0BDE8F08F00BFAFF3008074
:108B7000182D4454FB21E93F075C143326A6813CA1
:108B8000D47ABF74702AFB3EE9A7F0320FB8123FC7
:108B900068108D1AF726303F1583E0FEC8DB573F7B
:108BA00093846EE9E326823FFE41B31BBAA1AB3F3B
:108BB000735360DBCB75F3BEA69237A0887E143F5B
:108BC0000165F2F2D844433F280356C9226D6D3F38
:108BD00037D60684F464963F7AFE10111111C13F16
:108BE000635555555555D53FFFFF2F3E0000F0BF4B
:108BF0002794E53F0000F03F5846514613F01CFF14
:108C000002460B460020084913F0EAFA04460D46D6
:108C100062E701F1004308F1004883469A4659E6AD
:108C20005C46554658E700BF0000F03F00000000DA
:108C30002DE9F04FD24A21F00043934285B00C4613
:108C40000E4605462DD9CF4A93421AD8002E80F2FF
:108C50001681B5A3D3E900232846214612F0E4FF8C
:108C60000022002313F004FCC0B9B1A3D3E9002310
:108C70002846214613F08AF902460B460020C249D5
:108C800008E1C24A934240F2D0800346C1F3130286
:108C9000134340F0F681002980F2C4800020BC49D3
:108CA000C0E0BC4A934200F22981BB4A934240F2A1
:108CB000DE80002301930022B84B2846214613F0A2
:108CC00065F906460F4602460B462846214613F034
:108CD0005DF999A3D3E9002382468B4613F056F938
:108CE00097A3D3E9002312F09FFF52465B4613F08F
:108CF0004DF995A3D3E9002312F094FF52465B4649
:108D000013F044F992A3D3E9002312F08DFF5246E9
:108D10005B4613F03BF990A3D3E9002312F082FFE6
:108D200052465B4613F032F900229D4B12F07CFF55
:108D30008046894602460B463046394613F026F9EE
:108D400002460B460020974912F06CFF0646024689
:108D50000B460F464046494612F064FF32468046B5
:108D600089463B462846214613F010F902460B4639
:108D700000208D4912F056FF02460B4640464946F8
:108D800013F02EFA52465B4613F000F9019E02469C
:108D90000B46002E38D0DDE9026732463B4612F022
:108DA00041FF2A46234613F0F1F832463B4612F0C3
:108DB00039FF5B46524612F035FF019B01330646F0
:108DC0000F4600F00F81019B012B00F0F180019B09
:108DD0000133392B39D8019B132B40F31281019FAA
:108DE000C7F57F7603360022330512F01DFF0246D9
:108DF0000B462846214612F015FF0022684B12F060
:108E000013FF01EB07510DE02846214613F0BEF891
:108E100052465B4612F006FF02460B4628462146A4
:108E200012F000FF05B0BDE8F08F4DA3D3E9002399
:108E300013F03CFB00283FF409AF4BA3D3E9002318
:108E40001046194613F0A2F8ECE72A46234612F022
:108E5000E9FE02460B460020514912F0E3FE019A5A
:108E60004F4B01EB0251002212F0DCFEDAE73EA389
:108E7000D3E9002312F0D8FE02460B46CAE72CA322
:108E8000D3E900232846214613F080F80B464349D6
:108E90000246002012F0C8FE13F028FB019013F0E8
:108EA0000FF833A3D3E9002306460F4613F06EF8FC
:108EB00002460B462846214612F0B4FE2EA3D3E903
:108EC0000023804689463046394613F05FF806464F
:108ED0000F4632463B464046494612F0A3FE024644
:108EE0000B4605460C464046494612F09BFE32466C
:108EF0003B4612F097FECDE90201DCE62B4A934295
:108F000000F2978000291AA3D3E90023C0F2AE80B3
:108F100012F088FE012380468946019316A7D7E9FF
:108F20000067D6E7AFF3008059F3F8C21F6EA501C2
:108F3000FE822B654715F73F2DC3096EB7FD8ABE2C
:108F40003952E686CACFD03EB7DBAA9E19CE143F6F
:108F50008555FE19A0015A3FF41011111111A13FBE
:108F6000EF39FAFE422E86409C7500883CE4377E3D
:108F70000000E0FE422EE63F763C7935EF39EA3DCF
:108F800079684340412E86400000E0BFFFFFEF7F3D
:108F90000000F0BF422ED63FFFFF8F3C0000E03FB5
:108FA0000000F03F0000084000001840B1A2F03F70
:108FB0002846214600223A4B13F05AFA002846D0A0
:108FC000284621460022374B12F02EFE02460B4661
:108FD0003046394612F026FE00224FF0404312F090
:108FE000D5FF1FE732463B462846214612F01AFEBF
:108FF00000222C4B12F0CAFF00222A4B12F012FE64
:1090000010E7019E4FF4001E4EFA06FE2A46234644
:10901000CEF17F5712F006FE002607F540170246F4
:109020000B463046394612F0FDFD019E01EB06511C
:10903000F8E617A3D3E9002312F0A8FF002C02469C
:109040000B464FF00000FFF61AAE164922E73246F3
:109050003B462846214612F0E5FD02460B4612F03B
:10906000E3FD0022104B12F0DFFDDBE612F0DCFD29
:109070004FF0FF3380468946019307A7D7E9006781
:1090800027E702460B4612F0CFFDCBE6AFF3008098
:10909000FE822B654715F73F763C7935EF39EABDFF
:1090A0000000D0BF0000E03F0000F03F00000000E3
:1090B000F8B5C1F30A5604460D460B4617460EBBDB
:1090C00021F000430343864625D00022344B12F0A2
:1090D0005DFF344A974204460D460B462ADBC1F336
:1090E0000A56363E3E4440F2FE72964228DC002E7E
:1090F00012DD23F0FF4323F4E00343EA0655204644
:109100002946F8BD40F2FF729642EBD102460B466B
:1091100012F08AFDF8BDF8BD16F1350F1DDA4CF2DC
:1091200050339F4222462B4625DC19A1D1E900018C
:1091300015F018FD16A3D3E9002312F027FFF8BDA0
:1091400022462B4614A1D1E9000115F00BFD12A314
:10915000D3E9002312F01AFFF8BD23F0FF4323F4F4
:10916000E003363643EA06552046294600220E4BD8
:1091700012F00CFFF8BD08A1D1E9000115F0F2FCD6
:1091800005A3D3E9002312F001FFF8BDAFF300807F
:1091900059F3F8C21F6EA5019C7500883CE4377E28
:1091A00000005043B03CFFFF0000903C10B5054C60
:1091B000237833B9044B13B10448AFF30080012383
:1091C000237010BD580200200000000008170200A4
:1091D0000C4B43B10C480D4910B5AFF300800C485F
:1091E000036823B910BD0A48036833B97047094BB7
:1091F000002BF7D0BDE810401847064B002BF5D0E8
:10920000184700BF00000000081702005C020020A1
:10921000081702000000000070B504460E4600F07A
:1092200095F988B10368DB6A05469847082C0CD08D
:10923000A4F10903012B14D93246214610230D2035
:10924000BDE8704003F04EBF70BD2B6828465B6AD6
:1092500098470228F0DC2B6828461B6A04219847AF
:10926000EAE72B6828465B6A98470528E4DC2B6808
:1092700028461B6A08219847DEE700BF10B52DED90
:10928000028B82B000F062F9044668B30BF004F878
:1092900007EE900A2046F8EEE78A0BF00DF807EE8D
:1092A000900A2046B8EEE78A0BF016F868EE087AC6
:1092B00007EE100AE8EEA87AB8EEC77AE7EE077A6A
:1092C000F5EE407AF1EE10FAB1EEE78A03D517EE2B
:1092D000900A14F067FAFDEEC87ACDED017A019894
:1092E00002B0BDEC028B10BD0190019802B0BDEC44
:1092F000028B10BD10B5044600F028F928B1032CEC
:1093000003D8DFE804F0080C1004002010BDBDE80D
:109310001040FFF7B3BFBDE810400AF0BDBFBDE885
:1093200010400AF0C9BFBDE810400AF0D5BF00BF29
:1093300010B5044600F00AF930B13CB1012C03D15C
:10934000BDE81040FBF788B9002010BDBDE8104013
:10935000FBF762B910B5044600F0F8F828B10368CD
:1093600021461B6ABDE81040184710BD00487047F1
:1093700016FCFFFF704700BF10B5034B03600446A7
:109380000AF07CFD204610BD5408020010B5054BC4
:10939000036004460AF072FD204615F07BFF20466C
:1093A00010BD00BF540802002DE9F043614E34683F
:1093B00083B01CB1204603B0BDE8F0834FF0FF310D
:1093C000012001F087FB04F0BDFC002800F0B08014
:1093D0000C2015F061FF23462246032105460DF0BF
:1093E000BFFD5548AC6009F009FF4FF0FF31032085
:1093F00001F070FB04F0A6FC4FF0FF3104460220A0
:1094000001F068FB04F09EFC002C76D0002874D09C
:109410000146204604F068FA8046002800F0848067
:109420003221462001F056FB382807464CD06828E8
:1094300033D032280ED0A86810BB4FF0FF31032084
:1094400001F048FB04F07EFC002869D05A2007F0A8
:109450001BFD1CE04FF0FF31012001F03BFB04F04D
:1094600071FC81464C2015F017FF0523044601933B
:109470004A46009741462B460CF026F9AC60204640
:1094800003689B6A9847A8680368DB6A98472C467C
:109490002046356003B0BDE8F0834FF0FF31012076
:1094A00001F018FB04F04EFC8146482015F0F4FE54
:1094B0000523044601934A46009741462B460CF08B
:1094C0002DFBAC602046DBE74FF0FF31012001F0BF
:1094D00001FB04F037FC8146442015F0DDFE052336
:1094E000044601934A462B46009741460CF05EFA2B
:1094F000124BAC6023602046C2E7114809F07EFEA3
:109500004FF0FF31192001F0E5FA04F01BFC4FF099
:10951000FF310446182001F0DDFA04F013FC77E770
:10952000084809F06BFEB2E7074809F067FEAEE7AE
:1095300034683FE774020020FCFC010068FC010075
:109540009CFC0100DCFC0100BCFC010008B5FFF73D
:109550002BFF00B1806808BD08B501F0D7FBFBF711
:1095600007FFBDE8084001F041B900BF08B501F0B0
:10957000CDFBFBF76DFFBDE8084001F037B900BF38
:1095800008B501F0C3FB13F0CDFABDE8084001F0C7
:109590002DB900BF08B501F0B9FB14F03FF8BDE8E4
:1095A000084001F023B900BF08B501F0AFFBFBF79D
:1095B000EFFEBDE8084001F019B900BF08B501F0A1
:1095C000A5FB13F0E1FCBDE8084001F00FB900BFB6
:1095D00008B501F09BFBFBF72BF9BDE8084001F053
:1095E00005B900BF08B501F091FB13F021FCBDE8FF
:1095F000084001F0FBB800BF70B5049E96420C46CF
:1096000028DB15466BB1002A00EB020107DD20467E
:10961000A21811F8013D00F8013B9042F9D1002059
:1096200070BD042A0FD0022A02D110F0010306D027
:1096300001462A46204606F0F3F9002070BD028854
:109640000A80184670BD10F00303F1D102680A6069
:10965000184670BD0846002107F042FA4FF0FF306F
:1096600070BD00BF0830704740B1002905DB43687A
:10967000994202DA0844007A70470020704700BF20
:1096800030B1002904DB43689942BCBF4018027224
:10969000704700BF002B23DB002921DB70B5466833
:1096A000B1421ADC5568761A1446EA1AB242A8BFCB
:1096B0003246002A11DB84420D4607D008340830B8
:1096C0000844E11806F0ACF9002070BD0834E11838
:1096D000601915F00FFE002070BD4FF0FF3070BD17
:1096E0004FF0FF30704700BF4068704710B4141E41
:1096F00010DB426894420DDC33EA230328BF134693
:10970000121B08309A422044A8BF1A465DF8044B49
:1097100007F0E6B95DF8044B704700BF43688B4221
:1097200010B400F108041846A8BF084632EA220126
:1097300028BF19461B1A99422044A8BF19465DF854
:10974000044B00F057BE00BF002BBCBF43689B1A00
:10975000002A70B50E4622DB44689918A1421EDC2F
:109760008A421CDCDBB136F0004118D059428E42EF
:1097700013DDB34211DD0830002E00EB020516DBCD
:109780009C1B2246A919284615F0B4FD324628191B
:109790000021BDE8704007F0A3B9002C00DA70BDCD
:1097A000224608300021BDE8704007F099B97442A4
:1097B0009A192946281915F09DFD224628460021B0
:1097C000BDE8704007F08CB903460830596800F0D6
:1097D00091BD00BF70B5044600206168490000F0EB
:1097E00007FD6668002E11DD094D04F1080100EB4C
:1097F0004606034611F8012B141102F00F022C5DEE
:10980000AA5C9C71DA7102339E42F3D170BD00BF35
:109810000CFD0100002BBCBF43689B1A002A2FDB04
:1098200070B445689C18AC4229DCA24227DC33B3F3
:1098300031F0004423D00029B8BF01EB032191FB94
:10984000F3F603FB1616002E00F10800B8BFF61859
:1098500002441644B242134411D0304604E0B242EE
:1098600008460ED090420AD00146147811F8015BE8
:1098700002F8015B8B420470F1D13046F2E770BC14
:1098800070470E46EEE700BF00B583B04FF0FF33E0
:1098900000930023FFF7FEFE03B05DF804FB00BF5A
:1098A0000146002000F0A6BD38B50021054600F0B5
:1098B0004FFD0146002000F09DFD044600F1080127
:1098C000284600F045FD204638BD00BF30B5013ABE
:1098D00083B004460D460F2A16D8DFE802F01717AA
:1098E000838D94172E08081F424D5C36746218460B
:1098F00001F0A0FA012DADF8000005DD9DF8002073
:109900009DF801302370627003B030BD184601F03D
:1099100091FA002DF8DD207003B030BD184601F03B
:1099200089FA032D0090EFDD6A46231D12F8011B12
:1099300003F8011D9C42F9D1E6E7184601F07AFAD6
:10994000002DC0B2E0DD2070E6E7184601F0DEF938
:10995000072DCDE90001D7DD6B4603CB20606160A8
:10996000D2E7184601F0FAF9032DCDDDA3070CBFAD
:109970002060206003B030BD184601F0EFF9032DE0
:109980000090C1DD6A46231D12F8011B03F8011D7A
:109990009C42F9D1B8E7184601F0DEFA032DE5DC68
:1099A000B2E7184601F0B2F9072DCDE90001ABDDB1
:1099B0000DF1FF3204F1080312F8011F03F8011D35
:1099C000A342F9D1A0E7184601F0C6FA032D009092
:1099D0009ADD6A46231D12F8011B03F8011DA342FC
:1099E000F9D191E7184601F025FA012D8CDDE20747
:1099F00054BF2080208087E7184601F01BFA012D14
:109A000082DD80B2F3E7184601F014FA032DADDCD5
:109A10007AE700BF30B4141E07DB456808300A46F9
:109A20002044291B30BCFFF751BF30BC704700BF3A
:109A300000B5013A85B00F2A00F28880DFE802F015
:109A40001623303D4A56595C5F6265717480830805
:109A50000091012308220DEB0201FFF7CDFDDDE9A6
:109A6000020100F0C3FE05B05DF804FB0091002385
:109A7000012202A9FFF7C0FD9DF9080000F0C4FF14
:109A800005B05DF804FB00910023012202A9FFF755
:109A9000B3FD9DF8080000F0B7FF05B05DF804FBCA
:109AA00000910023022202A9FFF7A6FDBDF90800DC
:109AB00000F0AAFF05B05DF804FB0091002302222C
:109AC00002A9FFF799FDBDF8080000F09DFF05B061
:109AD0005DF804FB00910023042202A9FFF78CFD2E
